:020000040800F2
:10000000C81F0020A5400008852400088724000898
:100010008B2400088F2400089324000800000000AF
:10002000000000000000000000000000972400080D
:1000300099240008000000009B2400089D2400086B
:10004000BF400008BF400008BF400008BF40000894
:10005000BF400008BF400008BF400008BF40000884
:10006000BF400008BF400008BF400008BF40000874
:10007000BF400008BF400008BF400008BF40000864
:10008000BF400008BF400008BF400008BF40000854
:10009000BF400008BF400008BF400008BF40000844
:1000A000BF400008BF400008BF400008BF40000834
:1000B000EB29000853290008832A0008BF400008E4
:1000C000BF400008BF400008BF400008BF40000814
:1000D000BF4000081B400008BF400008BF400008A8
:1000E000BF400008BF400008BF400008BF400008F4
:1000F000BF400008BF400008BF400008BF400008E4
:10010000BF400008BF4000081D2B0008BF4000088A
:10011000BF400008BF400008BF400008BF400008C3
:10012000BF400008BF400008BF400008BF400008B3
:1001300000F002F800F04DF80AA090E8000C8244AC
:100140008344AAF10107DA4501D100F042F8AFF289
:10015000090EBAE80F0013F0010F18BFFB1A43F0A5
:10016000010318476476000084760000103A24BF2B
:1001700078C878C1FAD8520724BF30C830C144BF0C
:1001800004680C607047000000230024002500264E
:10019000103A28BF78C1FBD8520728BF30C148BFEA
:1001A0000B607047662907F0B982642905F07C86E8
:1001B000632906F00A82002070471FB506F056FA40
:1001C00004000020002106F0ABFFE0601FBD10B569
:1001D00010BD06F063FB1146FFF7EFFF01F0C0FF13
:1001E00006F081FB03B4FFF7F2FF03BC03F0BAFE95
:1001F00070B505460E46002405E0295DF7A005F020
:10020000F7FD601CC4B2B442F7DB70BD2DE9F041CC
:1002100006460F4614461D46012D20D102F04AFF26
:100220003946304603F0E9F8ED4908700846007891
:1002300078B902200870204603F009F9E8490870EF
:100240000846007828B902F022FFE5480078BDE8AA
:10025000F0810220E249087008460078F7E703F0D1
:10026000CFFA3946304603F07AFCDD49087008467B
:10027000007870B902200870204603F09AFCD84933
:1002800008700846007820B903F0A7FAD44800782F
:10029000DDE70220D249087008460078D7E72DE94B
:1002A000FC4100250120CF490870CF490870CF4894
:1002B00042780178CE480378CEA005F099FDCFA012
:1002C00005F096FD642003F020FEC84842780178CE
:1002D000C7480378C7A005F08BFDCAA005F088FDCC
:1002E00066E168E0D048008800F4004000283AD079
:1002F000CD48067800240BE0CC48005D0DF80400E2
:100300001DF804003038C0B20DF80400601CC4B2FF
:10031000B442F1DB0020C44908809DF800000928A0
:1003200021D19DF8010006281DD10020AE4908709A
:10033000AE4842780178AE480378AEA005F058FD8B
:100340002946BBA005F054FD642003F0DEFDA7485C
:1003500042780178A6480378A6A005F049FDBCA024
:1003600005F046FD2BE09F480378BF4ABF49522065
:10037000FFF74CFF00281ED10220994908709B48C6
:10038000427801789A4803789AA005F031FDB8A028
:1003900005F02EFD002406E0B348015D8FA005F0B6
:1003A00027FD601CC4B2042CF6DB9EA005F020FDE6
:1003B00002208C4908708B480078012892D000BF39
:1003C000F0E09948008800F4004000283AD09648B0
:1003D000067800240BE09548005D0DF804001DF838
:1003E00004003038C0B20DF80400601CC4B2B4423E
:1003F000F1DB00208C4908809DF80000092821D1FC
:100400009DF8010006281DD1002077490870774823
:10041000427801787648037876A005F0E9FC294611
:1004200083A005F0E5FC642003F06FFD6F4842787F
:1004300001786F4803786FA005F0DAFC84A005F01E
:10044000D7FCB4E067480378924A88495220FFF706
:10045000DDFE0028B4D1022061490870634842786B
:1004600001786348037863A005F0C2FC8AA005F018
:10047000BFFC002406E08748015D58A005F0B8FCE9
:10048000601CC4B2042CF6DB66A005F0B1FC0024AD
:1004900009E08048005D7449095D884201D1781CFB
:1004A000C7B2601CC4B2042CF3DB642003F02DFD42
:1004B000042F48D104208149087081480068A0F5C4
:1004C0007A700A46127805FB02017C480278664879
:1004D00002F0EBFC7A480068A0F57A70774A12784F
:1004E00005FB02017548027801A802F046FC3F486E
:1004F000427801783E4803783EA005F079FC71A06F
:1005000005F076FC002406E001A8015D33A005F0AB
:100510006FFC601CC4B2042CF6DB42A005F068FC42
:100520000027681CC5B2642003F0EFFC2F48427816
:1005300001782F4803782FA005F05AFC294667A0C0
:1005400005F056FC0AE029484278017828480378EB
:1005500028A005F04DFC66A005F04AFC312D1EDDFB
:100560000020214908701F4908702048427801780E
:100570001F4803781FA005F03BFC29462CA005F07E
:1005800037FC642003F0C1FC184842780178184811
:10059000037818A005F02CFC2DA005F029FC012003
:1005A000104908700F48007802283FF40AAF00BFD6
:1005B0000D48007801283FF494AEBDE8FC8138B5C1
:1005C000002500205249087001205249087002227B
:1005D0000A21514802F0D1FBD6E00000256420003A
:1005E0000E000020310000203300002074000020A5
:1005F0007A000020256325632563000041393631E8
:10060000310D0A0041537461727420736176652064
:1006100052464944206C6162656C20746F205732E9
:10062000355136340D0A00009C0000209A18002035
:1006300041536176652052464944206C6162656C85
:10064000206E756D6265723A25640D0A0000000027
:1006500041536176652052464944206C6162656C65
:10066000206F7665720D0A0006000020040000204D
:1006700041546865206C6162656C206964656E74C4
:10068000696669656420627920524649442D3120AB
:10069000697320000A00002041546865206C616283
:1006A000656C206964656E74696669656420627949
:1006B00020524649442D32206973200071000020E9
:1006C0000000002041536176652052464944206C69
:1006D0006162656C206973200000000041536176FF
:1006E000655F4E756D626572206973202564000038
:1006F0004153617665204572726F723A52464944A1
:100700002D3120213D20524649442D320000000069
:10071000320000203400002040000020FE48006825
:10072000A0F57A7000EB85010422684602F025FBF3
:1007300000240AE01DF80400FF2804D1F7480078DF
:10074000401CF6490870601CC4B2042CF2DBF3486C
:100750000078042805D10020F1490870EF4908709D
:1007600016E0002407E01DF80400EE4901EB8501C6
:100770000855601CC4B2042CF5DB681CC5B2312DD1
:1007800002DD0020E6490870E54800780128C5D060
:1007900000BF38BD1CB54FF48071E34803F0B1FDD4
:1007A0004FF40061E14803F0ACFD0421E04803F0A0
:1007B000A8FD4FF48071DF4803F0A3FD642003F02F
:1007C000A4FB4FF48071D84803F099FD4FF4006109
:1007D000D64803F094FD0421D54803F090FD4FF472
:1007E0008071D44803F08BFD02F01BF902F0CFF8C2
:1007F00002F065F902F0B0F900204FF080418884E2
:10080000CD490880CD490880CD490880CD49086090
:10081000CD490860CD490860CD490860CD490860E0
:100820000120CD4908700020CC490870CC490870DF
:10083000CC490870CC4908700021CC4A1160516045
:100840000022CB4BCB4903C906F032FF14D8CA486B
:1008500042780178C9480378AFF2682005F0C8FAF9
:10086000C24803C8CDE90001C2480CC8C4480168A9
:10087000C4A005F0BDFA13E0BF4842780178BF4834
:100880000378AFF2902005F0B3FAB84803C8CDE979
:100890000001B8480CC8BA480168BFA005F0A8FA22
:1008A0001CBD2DE9FE430120AC4908700020AA4977
:1008B00008700220BE490870AF4842780178AF48FE
:1008C0000378AFF2D02005F093FAAD480168B9A0E3
:1008D00005F08EFAA7E2C6E0B948008800F40040AF
:1008E000002873D0B64890F80090002409E0B5487D
:1008F000005D02A9085502A8005D30380855601C4B
:10090000C4B24C45F3DB0020AD4908809DF80800D7
:10091000092808D19DF8090028B98F48007810B936
:10092000FFF738FFA4E09DF80800002863D19DF888
:10093000090000285FD1834800686421B0FBF1F70B
:10094000384606F067FD054688480CC8284606F07C
:10095000B1FD884A03C27B4800689B4908604FF09C
:10096000804005F01EFA994908600968964A1268A5
:100970004FF6E85303FB021006F04CFD0746002239
:10098000934B06F0EFFB054678480CC8284606F066
:1009900091FD784A03C20022754B764903C906F0DF
:1009A00087FE14D874484278017874480378AFF20F
:1009B000BC3005F01DFA6D4903C9CDE900016D4851
:1009C0000CC86F48016883A005F012FA13E06A486A
:1009D0004278017869480378AFF2E83005F008FA08
:1009E000624903C9CDE9000162480CC86448016846
:1009F0007DA005F0FDF904214B4801F0F0FE80498F
:100A000008700221484801F0EAFE7E490870012181
:100A1000454801F0E4FE7C4908707948007840B907
:100A20007848007828B90846007810B9FFF7B2FE78
:100A30001EE05F480378754A75495220FFF7E6FBD0
:100A400088B901F0EEFF01F094FF00204FF08041E3
:100A500088843C49086001F0D8FF02206D49087085
:100A60000120534908705248007802283FF434AFFF
:100A700000BFD2E15248008800F40040002849D06D
:100A80004F4890F80090002409E04E48005D02A90C
:100A9000085502A8005D30380855601CC4B24C45AA
:100AA000F3DB0020464908809DF80800092808D19A
:100AB0009DF8090028B92848007810B9FFF76AFEA8
:100AC000B0E19DF80800002824D19DF80900002815
:100AD00020D11C4800683C4908604FF0804005F078
:100AE00060F93A4908600968374A12684FF6E853D6
:100AF00003FB021006F08EFC05460022344B06F084
:100B000031FB074619480CC8384606F0D3FC194A91
:100B100003C281E0B2E000000000002032000020AB
:100B200034000020B800002000100140000C0140FB
:100B30000014014000080140240400402408004043
:100B4000240C004014000020100000201800002099
:100B50001C00002068000020370000203600002024
:100B600035000020380000207000002050000020D8
:100B70000000244058000020740000207A0000206B
:100B80003C000020413930393025303264252E3286
:100B900066252E32660D0A00413930393025303253
:100BA0006430252E3266252E32660D0A00000000C4
:100BB000310000204131303130253032640D0A00DF
:100BC0009C0000209A18002028000020240000200B
:100BD00080842E41413130313025303264252E322F
:100BE00066252E32660D0A00413130313025303213
:100BF0006430252E3266252E32660D0A0000000074
:100C0000390000203A0000203B0000200A000020AC
:100C1000040000200E0000200022F94BF94903C90E
:100C200006F046FD15D8F84842780178F748037871
:100C3000AFF2406005F0DCF8F54903C9CDE90001E9
:100C4000F0480CC8F3480168AFF2780005F0D0F81E
:100C500014E0ED4842780178EC480378AFF26C601C
:100C600005F0C6F8EA4903C9CDE90001E5480CC81A
:100C7000E8480168AFF2900005F0BAF80421E648B0
:100C800001F0ADFDE54908700221E34801F0A7FD40
:100C9000E34908700121E04801F0A1FDE149087035
:100CA000DE48007840B9DE48007828B90846007868
:100CB00010B9FFF76FFDB5E0DB48006864280AD97A
:100CC00001F065FE0020D8490860D849088002205C
:100CD000D7490870A6E0D6480378D64AD6495220AC
:100CE000FFF794FA00287DD101F051FE0020D3498E
:100CF000087000240CE0CF48005DD149095D8842AE
:100D000004D1CE480078401CCC490870601CC4B2A5
:100D1000042CF0DBC9480078042872D10020C749B0
:100D20000870C248243805F03CF8C64908600968D4
:100D3000BD4A12684FF6E85303FB021006F06AFB47
:100D400005460022C04B06F00DFAC04A03C2C04857
:100D50000CC80020AA4906F0ADFB0546BB480CC8EC
:100D6000284606F0FFF9AA4A03C20020AF490880CE
:100D7000AD490860814621E000240EE0B54800EB53
:100D80008900005DAB49095D884204D1AB48007819
:100D9000401CAA490870601CC4B2042CEEDBA748B2
:100DA0000078042803D10020A449087009E000203D
:100DB000A249087009F1010000F0FF09B9F1320FF2
:100DC000DADB00BF09F101009249086008460068BB
:100DD0000A21B0FBF1F030309F4908708D4800685F
:100DE0000A2100E019E0B0FBF1F201FB1200303003
:100DF0009949487002220A21974802F056F807E004
:100E0000FFE70020884908608C49087087490880FE
:100E100002209249087086490870854800780128A8
:100E20003FF428AE00BF8E48007801283FF453AD50
:100E3000BDE8FE832DE9FE4F4FF0000801208949EF
:100E400008700020884908700120794908706E48B0
:100E5000427801786D480378AFF6680004F0C8FF67
:100E60006C48016881A004F0C3FF73E2B7E08248D8
:100E7000008800F40040002877D07F4805780024DF
:100E800009E07E48005D02A9085502A8005D3038DF
:100E90000855601CC4B2AC42F3DB002076490880E0
:100EA0009DF80800092808D19DF8090028B96E4866
:100EB000007810B9FFF76EFC96E09DF80800002856
:100EC00053D19DF8090000284FD16D4800686D4945
:100ED00008604FF0804004F064FF6B4908600968C7
:100EE000684A12684FF6E85303FB021006F092FAC4
:100EF00081460022654B06F035F9064644480CC889
:100F0000304606F0D7FA3F4A03C200223C4B3D4927
:100F100003C906F0CDFB14D83B48427801783B4822
:100F20000378AFF6301004F063FF394803C8CDE909
:100F3000000134480CC83748016855A004F058FF38
:100F400013E031484278017830480378AFF65C10FE
:100F500004F04EFF2E4803C8CDE9000129480CC813
:100F60002C4801684FA004F043FF04212A4801F0F7
:100F700036FC2A4908700221274801F030FC284934
:100F800008700121244801F02AFC264908702348F2
:100F9000007858B92248007840B90846007828B946
:100FA000FFF7F8FB45A004F023FF1DE0204803787D
:100FB000204A21495220FFF729F980B901F031FD7B
:100FC00001F0D7FC00204FF0804188842C49086054
:100FD00001F01BFD022021490870154908701448D2
:100FE000007801283FF443AF00BFADE122480088FC
:100FF00000F4004000286DD01F480578002474E0FC
:101000000000244058000020740000207A000020D6
:10101000500000203C00002000100140390000205A
:101020003A0000203B000020100000202404004073
:1010300031000020060000200400002032000020C3
:101040000A0000202000002000408F4060000020A7
:1010500048000020B8000020400000200E000020C2
:1010600036000020350000203700002041313131AA
:1010700031253032640D0A009C0000209A180020AF
:1010800014000020280000202400002080842E412D
:10109000413131313125303264252E3266252E32F0
:1010A000660D0A0041313131312530326430252E50
:1010B0003266252E32660D0A000000006765742036
:1010C00070696E20746F2073746F70206E756D314F
:1010D000000000005FE0FE48005D02A9085502A87C
:1010E000005D30380855601CC4B2AC42F3DB002010
:1010F000F84908809DF80800092808D19DF80900E2
:1011000028B9F548007810B9FFF744FB21E19DF8B4
:101110000800002855D19DF80900002851D1EF485A
:101120000068EF4908604FF0804004F03AFEED4956
:1011300008600968EA4A12684FF6E85303FB021098
:1011400006F068F906460022E74B06F00BF88146E8
:10115000E6480CC8484606F0ADF9E54A03C200224D
:10116000E44BE34903C906F0A3FA15D8E2484278F4
:101170000178E2480378AFF6843004F039FEDB49A9
:1011800003C9CDE90001DA480CC8DD480168AFF2B7
:10119000001004F02DFE14E0D74842780178D748BB
:1011A0000378AFF6B03004F023FED04803C8CDE991
:1011B0000001CF480CC8D2480168AFF2181004F003
:1011C00017FE0421CF4801F00AFBCF490870022125
:1011D000CC4801F004FBCD4908700121C94801F059
:1011E000FEFACB490870C848007858B9C74800785B
:1011F00040B90846007828B9FFF7CCFAC5A004F03A
:10120000F7FDA6E0C948006864280AD901F0BFFBD1
:101210000020C7490880C54908600120C5490870F9
:1012200097E0C4480378C44AC4495220FEF7EEFF51
:1012300000287BD101F0ABFB00240BE0C048005D2F
:10124000BD49095D884203D108F1010000F0FF08A3
:10125000601CC4B2042CF1DBB8F1040F68D14FF06C
:101260000008B348243804F09CFDB64908600968BA
:10127000AE4A12684FF6E85303FB021006F0CAF8B4
:1012800006460022B04B05F06DFFB04A03C2B048DD
:101290000CC80020974906F00DF90646AB480CC86B
:1012A000304605F05FFF914A03C20020A049088044
:1012B0009E49086000251BE000240DE0A54800EBD6
:1012C0008500005D9E49095D884203D108F1010057
:1012D00000F0FF08601CC4B2042CEFDBB8F1040F6F
:1012E00002D14FF0000805E04FF00008681CC5B2BD
:1012F000322DE1DB00BF681C8149086008460068A8
:101300000A21B0FBF1F03030934908707C48006846
:101310000A21B0FBF1F201FB120030308E49487017
:1013200002220A218C4801F0C0FD07E00CE0FFE733
:1013300000207E4908607E49088080460220874957
:10134000087001207B4908707A48007802283FF431
:101350004DAE00BF8248007801283FF487ADBDE85C
:10136000FE8F10B50421674801F039FA664908700C
:101370000221644801F033FA644908700121614890
:1013800001F02DFA624908705F48007850B95F4853
:101390000078012806D108460078012802D1FFF71D
:1013A00049FD0CE058480078012808D157480078DA
:1013B00028B957480078012801D1FFF772FA10BD0B
:1013C00038B501206749087002220A21624801F0FD
:1013D000D4FC6148407830385F490978303901EBF6
:1013E000810100EB4100464908604348427801789A
:1013F00042480378AFF6046004F0FAFC564842789D
:10140000017859A004F0F4FC02E1FFF7AAFF31488B
:10141000008800F400400028F6D02E48057800240B
:101420000BE02B48005D0DF804001DF80400303877
:10143000C0B20DF80400601CC4B2AC42F1DB002065
:10144000244908809DF80000012829D19DF8010059
:10145000012825D120480078012821D140212948A0
:1014600002F04FFF4FF40071424802F04AFF4FF480
:101470008071414802F045FF642002F046FD4021A2
:10148000204802F03CFF4FF400713A4802F037FF69
:101490004FF48071384802F032FFFFF7CBFCB7E021
:1014A0009DF8000001287FD19DF8010070B90A481D
:1014B0000078012878D18021124802F022FF4FF4F1
:1014C00080612C4802F01DFF042157E06CE0000011
:1014D0009A1800209C0000203700002014000020F3
:1014E000280000202400002080842E41500000208D
:1014F0005800002000002440740000207A000020E2
:101500003C00002000100140390000203A0000207B
:101510003B0000206765742070696E20746F207333
:10152000746F70206E756D32000000001000002096
:1015300024040040310000200A00002004000020A4
:10154000060000202000002000408F4060000020A6
:1015500048000020B8000020400000200E000020BD
:101560003500002030000020413939313125632514
:10157000630D0A00000C014000080140FC4802F025
:10158000C0FE642002F0C1FC8021FA4802F0B7FEE0
:101590004FF48061F84802F0B2FE0421F44802F0F2
:1015A000AEFEFFF77EF933E09DF8000098B99DF894
:1015B000010080B9F14842780178F1480378AFF62C
:1015C000CC7004F015FCEF4842780178AFF2680067
:1015D00004F00EFC1CE09DF80000092818D19DF8CD
:1015E0000100092814D1E8480078012810D1E34807
:1015F00042780178E2480378E44804F0F9FBE148D6
:1016000042780178E2A004F0F3FB0020E34908707F
:10161000E248007801283FF4F8AE38BD2DE9FE4FCE
:101620004FF000080120DE4908700020D6490870FC
:101630000220DC490870D14842780178D04803780C
:10164000D24804F0D5FBD8480168D8A004F0D0FBFC
:101650002CE295E0D848008800F40040002875D0BE
:10166000D5480578002409E0D448005D02A9085552
:1016700002A8005D30380855601CC4B2AC42F3DBF0
:101680000020CD4908809DF80800092808D19DF860
:10169000090028B9BC48007810B9FFF77BF874E05E
:1016A0009DF80800002851D19DF8090000284DD16F
:1016B000C3480068C34908604FF0804004F071FBE4
:1016C000C14908600968BF4A12684FF6E85303FB36
:1016D000021005F09FFE81460022BC4B05F042FD42
:1016E0000646BB480CC8304605F0E4FEB94A03C2C2
:1016F0000022B94BB74903C905F0DAFF13D89F4858
:10170000427801789E480378A04804F071FBB04805
:1017100003C8CDE90001AF480CC8A3480168AFA0D9
:1017200004F066FB12E0954842780178944803780B
:10173000964804F05DFBA64803C8CDE90001A54822
:101740000CC899480168AAA004F052FB9548037898
:10175000AD4AAE495220FEF759FD88B901F061F952
:1017600001F007F900204FF0804188849449086017
:1017700001F04BF90220A649087001208949087040
:101780008848007802283FF465AF00BF88E18A48A6
:10179000008800F40040002875D0874805780024B0
:1017A00009E08648005D02A9085502A8005D3038AE
:1017B0000855601CC4B2AC42F3DB00207E490880AF
:1017C0009DF80800092808D19DF8090028B96E483D
:1017D000007810B9FEF7DEFF67E19DF808000028E9
:1017E00051D19DF8090000284DD175480068754910
:1017F00008604FF0804004F0D4FA7349086009682B
:10180000704A12684FF6E85303FB021005F002FE1F
:10181000064600226D4B05F0A5FC81466C480CC8BD
:10182000484605F047FE6B4A03C200226A4B6949ED
:1018300003C905F03DFF13D850484278017850485D
:101840000378524804F0D4FA614903C9CDE9000194
:1018500060480CC85448016860A004F0C9FA12E05E
:1018600046484278017846480378484804F0C0FA70
:10187000574803C8CDE9000156480CC84A480168DA
:101880005BA004F0B5FA63480068B0F57A7F0AD926
:1018900001F07DF800205F4908605F490880022060
:1018A0004049087001E13F4803785C4A574952209B
:1018B000FEF7ACFC002859D101F069F800240BE0D8
:1018C0005648005D5049095D884203D108F1010086
:1018D00000F0FF08601CC4B2042CF1DBB8F1040F67
:1018E00045D14FF000084C48243804F05AFA4C49CE
:1018F00008600968474A12684FF6E85303FB021074
:1019000005F088FD06460022464B05F02BFC464AB2
:1019100003C246480CC800202F4905F0CBFD0646FF
:1019200041480CC8304605F01DFC294A03C200207E
:10193000394908803749086000257FE000240DE020
:101940003B4800EB8500005D3449095D884203D1C6
:1019500008F1010000F0FF08601CC4B2042CEFDBAA
:10196000B8F1040F66D14FF000086AE098E08CE00F
:101970000014014000100140000C014074000020E0
:101980007A0000204000002037000020F405000805
:101990004139393031256325630D0A0030000020BC
:1019A00036000020310000203C000020413230325F
:1019B00030253032640D0A009C0000209A18002067
:1019C00014000020280000202400002080842E41E4
:1019D00050000020580000200000244041323032E6
:1019E0003025303264252E3266252E32660D0A00EF
:1019F00041323032302530326430252E3266252E89
:101A000032660D0A000000000A00002004000020D9
:101A10000E000020100000202404004006000020DA
:101A20002000002000408F4060000020480000207F
:101A3000B80000204FF00008681CC5B2322DFFF638
:101A40007DAF00BF681CFE490860084600680A2197
:101A5000B0FBF1F03030FB490870F94800680A210A
:101A6000B0FBF1F201FB12003030F649487002225F
:101A70000A21F44801F019FAF1480068F24909789E
:101A8000884208D1FEF786FE0FE00020EF4908608B
:101A90008046EF4908800220EE490870EE49087040
:101AA000ED48007801283FF472AE00BFEB480078A3
:101AB00001283FF4CEADBDE8FE8F2DE9FE4F4FF07B
:101AC00000080120E64908700020E649087001205E
:101AD000E1490870E44842780178E4480378E44832
:101AE00004F086F9D6480168E2A004F081F921E209
:101AF00094E0E348008800F40040002875D0E048F6
:101B00000578002409E0DF48005D02A9085502A815
:101B1000005D30380855601CC4B2AC42F3DB0020D5
:101B2000D74908809DF80800092808D19DF80900C8
:101B300028B9CC48007810B9FEF72CFE73E09DF868
:101B40000800002851D19DF8090000284DD1CE4849
:101B50000068CE4908604FF0804004F022F9CC497B
:101B600008600968C94A12684FF6E85303FB02107F
:101B700005F050FC81460022C64B05F0F3FA0646FC
:101B8000C5480CC8304605F095FCC44A03C2002283
:101B9000C34BC24903C905F08BFD13D8B248427844
:101BA0000178B2480378B24804F022F9BA4803C871
:101BB000CDE90001B9480CC8A1480168B9A004F0FA
:101BC00017F912E0A84842780178A8480378A84895
:101BD00004F00EF9B04803C8CDE90001AF480CC8C5
:101BE00097480168B4A004F003F99B480378B84A09
:101BF000B8495220FEF70AFB80B900F012FF00F04E
:101C0000B8FE00204FF0804188849F49086000F0B2
:101C1000FCFE02208F4908708F4908708E480078BA
:101C200001283FF466AF00BF7EE19548008800F4CC
:101C30000040002875D092480578002409E09148BA
:101C4000005D02A9085502A8005D30380855601CE7
:101C5000C4B2AC42F3DB0020894908809DF808003B
:101C6000092808D19DF8090028B97E48007810B9E4
:101C7000FEF790FD5DE19DF80800002851D19DF828
:101C8000090000284DD180480068804908604FF065
:101C9000804004F086F87E49086009687B4A126833
:101CA0004FF6E85303FB021005F0B4FB0646002292
:101CB000784B05F057FA814677480CC8484605F03E
:101CC000F9FB764A03C20022754B744903C905F03B
:101CD000EFFC13D86448427801786448037864487C
:101CE00004F086F86C4903C9CDE900016B480CC8C3
:101CF000534801686BA004F07BF812E05A48427820
:101D000001785A4803785A4804F072F8624803C8C8
:101D1000CDE9000161480CC84948016866A004F09B
:101D200067F84A48006864280AD900F030FE0020AD
:101D30004649086046490880012047490870F8E094
:101D400045480378644A63495220FEF75FFA002849
:101D500074D100F01CFE00240BE05D48005D5E497C
:101D6000095D884203D108F1010000F0FF08601C02
:101D7000C4B2042CF1DBB8F1040F60D14FF00008BD
:101D80003348243804F00DF85449086009682F4A94
:101D900012684FF6E85303FB021005F03BFB0646C2
:101DA00000224F4B05F0DEF94E4A03C24E480CC8E4
:101DB00000203B4905F07EFB06464A480CC83046E9
:101DC00005F0D0F9344A03C20020214908801F4998
:101DD000086000251BE000240DE0444800EB85006E
:101DE000005D3B49095D884203D108F1010000F024
:101DF000FF08601CC4B2042CEFDBB8F1040F02D161
:101E00004FF0000805E04FF00008681CC5B2322D05
:101E1000E1DB00BF681C0A490860084600680A2127
:101E2000B0FBF1F0303007490870054800680A211E
:101E3000B0FBF1F201FB1200303059E074E067E0D2
:101E40003C00002040000020420000201000002044
:101E5000240400400E000020310000203600002045
:101E60003500002037000020740000207A00002098
:101E7000F40500084132323232253032640D0A0056
:101E80009C0000209A180020140000202800002048
:101E90002400002080842E415000002058000020A3
:101EA00000002440413232323225303264252E3255
:101EB00066252E32660D0A0041323232322530322A
:101EC0006430252E3266252E32660D0A0000000091
:101ED00006000020040000200A000020200000204E
:101EE00000408F406000002048000020B800002023
:101EF000F949487002220A21F74800F0D6FFF74856
:101F00000068F7490978884208D1FEF743FC10E0E1
:101F10000020F44908608046F34908800220F34914
:101F200008700120F2490870F148007802283FF457
:101F30007CAE00BFEF48007801283FF4D9ADBDE882
:101F4000FE8F38B50220EC49087002220A21E248CF
:101F500000F013FFE04840783038DF490978303925
:101F600001EB810100EB4100DC490860E348427865
:101F70000178E3480378E34803F03AFFD648427813
:101F80000178E1A003F034FFE4E0FFF7EAF9E1486B
:101F9000008800F400400028F6D0DE4805780024D0
:101FA0000BE0DD48005D0DF804001DF8040030383A
:101FB000C0B20DF80400601CC4B2AC42F1DB0020DA
:101FC000D44908809DF80000092819D19DF8010026
:101FD000082815D1D1480078012811D10020C64920
:101FE0000870C64842780178C5480378C54803F0B0
:101FF000FFFEB94842780178C9A003F0F9FEA9E0D4
:102000009DF8000080B99DF8010068B9BB4842788E
:102010000178BB480378BB4803F0EAFEAF4801688B
:10202000C3A003F0E5FE95E09DF80000092807D164
:102030009DF80100012803D100F0F7F900F0FAF94A
:102040009DF803009DF8021001EB810100EB4100B7
:10205000A349087008460178B8A003F0C9FE9F485C
:1020600000689F49097888420BD99C4800680A2873
:1020700007D99A4800680D2803D20A2098490870A9
:1020800010E0964800689649097888420AD9934832
:102090000068072806D9914800680A2802D207205C
:1020A0008F4908709DF80000012829D19DF8010092
:1020B000012825D199480078012821D14021A04844
:1020C00002F01FF94FF400719E4802F01AF94FF424
:1020D00080719D4802F015F9642001F016FF40213F
:1020E000974802F00CF94FF40071964802F007F996
:1020F0004FF48071944802F002F9FFF7DEFC29E00A
:102100009DF80000012825D19DF8010010BB8348EF
:10211000007801281ED18021894802F0F2F84FF49E
:102120008061884802F0EDF80421884802F0E9F85F
:10213000642001F0EAFE8021814802F0E0F84FF4CB
:102140008061804802F0DBF80421804802F0D7F873
:10215000FFF764FA6848007802283FF416AF38BDEC
:1021600008B5002601F094FE4FF4A06002F03EFD99
:102170004FF4165001F005FF00F082FA00F0A4FAC7
:1021800000F0D1FA00F002FB00F03CFB47214FF6D3
:10219000E85000F0B5FB47214FF6E85000F0FDFB9A
:1021A00047214FF6E85000F043FC47214FF6E85036
:1021B00000F08BFC00F035FC00F0E9FB00F07FFC48
:1021C00000F0CAFC01F05FF801F00CFC00F07BFDB0
:1021D000FEF7F5F928E1FFF7C4F84E48008800F44F
:1021E00000400028F6D04B48067800240BE04A480F
:1021F000005D0DF804001DF804003038C0B20DF881
:102200000400601CC4B2B442F1DB002041490880E4
:102210009DF80000092806D19DF80100092802D187
:10222000FFF7CEF800E19DF80000092806D19DF8DF
:102230000100082802D1FFF784FEF5E09DF80000B8
:10224000092806D19DF80100062802D1FEF727F8DB
:10225000EAE09DF8000088B99DF8010070B92748B0
:102260004278017826480378264803F0C1FD1A48D1
:102270004278017836A003F0BBFDD5E09DF8000060
:10228000092807D19DF80100012803D100F0CDF8FD
:1022900000F0D0F89DF8000009289BD19DF80100BE
:1022A000052897D1154842780178154803781548D4
:1022B00003F09EFD29A003F09BFD01200C4908704E
:1022C0000025ABE01348008800F4004018B1114825
:1022D0000678002452E073E0400000203C0000201B
:1022E0004200002010000020240400400E000020C6
:1022F0003100002035000020300000207400002054
:102300007A000020F4050008413938313125632571
:10231000630D0A009C0000209A180020370000205E
:102320004139383031256325630D0A0D0A0000005C
:102330004139383131253032640D0A0025640000FE
:1023400000100140000C0140000801400014014051
:102350004130303030256325630D0A004139353175
:10236000310D0A003A48005D0DF804001DF8040024
:102370003038C0B20DF80400601CC4B2B442F1DBC6
:102380000020344908809DF80000092818D19DF8E4
:102390000100052814D100202F4908702F484278E9
:1023A00001782F4803782F4803F022FD29462D4855
:1023B000183803F01DFD2CA003F01AFD002532E0B3
:1023C00025480378294A2A495220FDF71FFF00BB00
:1023D00022484278017822480378224803F008FD19
:1023E0004FF48071234801F08CFF002407E01F4860
:1023F000015D1C48183803F0FBFC601CC4B2042CBF
:10240000F5DB19A003F0F4FC681CC5B202201A49E0
:1024100008704FF48071174801F071FF0E48007882
:1024200001283FF44FAF00BFD5E600F0010181F372
:10243000138870471148006800F4E06010490843B1
:10244000001D0E490860BFF3408F00BFFEE700008B
:102450009A1800209C000020310000207400002009
:102460007A000020F40500080D0A00000600002094
:1024700004000020000801400E0000200CED00E0E8
:102480000000FA05704700BFFEE700BFFEE700BF8F
:10249000FEE700BFFEE770477047704770470000D7
:1024A0000CB50020019000906C48006840F480302A
:1024B0006A49086000BF6948006800F40030009075
:1024C0000198401C0190009818B90198B0F5A06FD0
:1024D000F1D16248006800F4003010B10120009092
:1024E00001E0002000900098012843D15C4800687A
:1024F00040F010005A4908600846006820F00300C8
:1025000008600846006840F00200086053484068D0
:10251000524948600846406848600846406840F4B0
:10252000806048600846406820F47C104860084697
:10253000406840F4E81048600846006840F0807049
:10254000086000BF4548006800F000700028F9D01E
:102550004248406820F0030040494860084640680F
:1025600040F00200486000BF3C48406800F00C00AA
:102570000828F9D10CBD10B5FFF792FF10BD10B5BA
:102580003648006840F00100344908600846406859
:1025900034490840314948600846006832490840DB
:1025A0002E4908600846006820F48020086008462C
:1025B000406820F4FE0048604FF41F008860FFF779
:1025C000DAFF4FF000602949086010BD10B5002106
:1025D00000200022214B5B6803F00C0121B104298B
:1025E00006D0082928D107E0214B224C236027E0A0
:1025F0001F4B204C236023E0184B5B6803F47010E2
:10260000164B5B6803F48032022303EB904022B93F
:10261000194B4343174C23600DE0104B5B6803F4E8
:10262000003323B1144B4343124C236003E0104B9F
:102630004343104C236003E00D4B0E4C236000BF5E
:1026400000BF064B5B68C3F303130C4CE15C094B02
:102650001B68CB40074C236010BD000000100240F7
:10266000002002400000FFF8FFFFF6FE08ED00E04A
:1026700000127A007C00002000093D00800000204C
:1026800008B50121242002F049F84FF48070ADF81C
:10269000000010208DF8030003208DF80200694629
:1026A000544801F07FFD4FF48071524801F027FE3D
:1026B0000420ADF8000069464F4801F073FD042185
:1026C0004D4801F01CFE08BD08B50121102002F0A4
:1026D00025F84020ADF8000010208DF803000320FD
:1026E0008DF802006946454801F05CFD40214348F1
:1026F00001F005FE8020ADF8000069463F4801F07A
:1027000051FD80213D4801F0FAFD4FF48070ADF895
:1027100000006946394801F045FD4FF480713748A3
:1027200001F0EDFD08BD08B50121082001F0F6FF1C
:102730004FF40070ADF8000010208DF80300032066
:102740008DF8020069462E4801F02CFD4FF400710F
:102750002B4801F0D4FD4FF48060ADF800006946CD
:10276000274801F01FFD4FF48061254801F0C7FDA7
:102770004FF40060ADF800006946214801F012FDF9
:102780004FF400611E4801F0BAFD08BD08B50121F3
:10279000102001F0C3FF0120ADF8000028208DF8C3
:1027A000030003208DF802006946144801F0FAFC8A
:1027B0000220ADF800006946104801F0F3FC042047
:1027C000ADF8000069460D4801F0ECFC4FF40070D4
:1027D000ADF800006946094801F0E4FC08BD70B599
:1027E00004460D462946204601F06FFD0646304658
:1027F00070BD0000000801400014014000100140BD
:10280000000C014008B50121142001F087FF0121CF
:10281000374801F098FD4FF40040ADF80000482023
:102820008DF803006946334801F0BCFC2020ADF868
:10283000000048208DF8030069462F4801F0B2FCE3
:102840000120ADF8000028208DF8030069462948D2
:1028500001F0A8FC08BD10B5044614B101202749B9
:1028600008702648007868B32021234801F02DFD28
:1028700058B14FF400411F4801F027FD28B1012154
:102880001C4801F022FD01281CD10A2001F03DFB6B
:1028900000201A4908702021174801F016FD08B9D8
:1028A000012010BD4FF40041124801F00EFD08B99F
:1028B0000220F6E701210F4801F007FD012815D19C
:1028C0000320EEE720210C4801F0FFFC01280DD188
:1028D000C103084801F0F9FC012807D1012105488E
:1028E00001F0F3FC10B90120044908700020D8E77A
:1028F000000230000008014000100140900000205C
:102900007FB505460C460121022001F014FFADF809
:102910000850ADF804400020ADF80A00ADF80600FC
:1029200001A9904802F02AFC012211468D4802F0CC
:102930009CFF1D208DF8000001208DF80100002073
:102940008DF8020001208DF80300684602F053F96B
:102950007FBD10B50121834803F035FA40B1012154
:10296000804803F041FA80480068401C7E490860B6
:1029700010BD10B54FF6E8507A492C310880472039
:10298000091F08800121774802F054FF10BD10B5DF
:102990000021744802F04EFF10BD7FB505460C467D
:1029A0000121084601F0C7FEADF80850ADF804401B
:1029B0000020ADF80A00ADF8060001A94FF08040F4
:1029C00002F0DCFB01221146900702F04EFF1C20B2
:1029D0008DF8000001208DF801008DF802008DF8BF
:1029E0000300684602F007F97FBD10B50121880792
:1029F00003F0E9F940B10121880703F0F5F95B48DC
:102A00000068401C5949086010BD10B54FF6E850E9
:102A1000C1068885472008850121880702F00AFF42
:102A200010BD10B500214FF0804002F003FF10BD33
:102A30007FB505460C460121042001F07CFEADF86F
:102A40000850ADF804400020ADF80A00ADF80600CB
:102A500001A9474802F092FB01221146444802F0C6
:102A600004FF1E208DF8000001208DF801000220D7
:102A70008DF8020001208DF80300684602F0BBF8D3
:102A80007FBD10B501213A4803F09DF940B1012105
:102A9000374803F0A9F937480068401C35490860F9
:102AA00010BD10B54FF6E85031492C310880472051
:102AB000091F088001212E4802F0BCFE10BD10B590
:102AC00000212B4802F0B6FE10BD7FB505460C462E
:102AD0000121082001F02FFEADF80850ADF80440A8
:102AE0000020ADF80A00ADF8060001A9224802F066
:102AF00045FB01221146204802F0B7FE32208DF836
:102B0000000001208DF8010003208DF80200012053
:102B10008DF80300684602F06EF87FBD10B5012104
:102B2000154803F050F940B10121134803F05CF956
:102B300012480068401C1149086010BD10B54FF6DE
:102B4000E8500D492C3108804720091F08800121D9
:102B5000094802F06FFE10BD10B50021064802F0D2
:102B600069FE10BD00040040100000201400002089
:102B70000008004018000020000C00401C0000204D
:102B800070B50546002405E0601CC4B2C82C01DD08
:102B9000002070BD0221FA4802F0E5F90028F3D0C8
:102BA0002946F74802F08CF9002405E0601CC4B205
:102BB000C82C01DD0020ECE70121F14802F0D3F937
:102BC0000028F3D0EE4802F07DF9C0B2E1E708B585
:102BD00001210C2001F0A2FD0121C80301F0ABFD91
:102BE0003820ADF8000018208DF8030003208DF880
:102BF00002006946E34801F0D5FA4FF40040ADF811
:102C0000000010208DF8030003208DF802006946B3
:102C1000DD4801F0C7FA0121084601F07FFD0121DE
:102C2000DA4801F090FB3821D64801F068FB00201B
:102C3000D74908804FF482704880002088800220A5
:102C4000C880012008814002488138208881002006
:102C5000C88107200882CA4802F05CF80121C848F0
:102C600002F0FDF8FF20FFF78BFF08BD10B504460A
:102C7000C74884810146C24802F04CF80121C0488F
:102C800002F0EDF810BD10B500240020C149086025
:102C90009020FFF775FF0020FFF772FF0020FFF77D
:102CA0006FFF0020FFF76CFFFF20FFF769FF44EA8A
:102CB0000024FF20FFF764FF04430120B649C1F858
:102CC0009C01204610BD08B50121082001F026FD19
:102CD000C020ADF8000010208DF8030003208DF80F
:102CE00002006946A74801F05DFAC021A54801F03D
:102CF00006FBFFF76CFF0820FFF7B8FFFFF7C3FFE5
:102D0000A649088008BD10B500240020A14908602C
:102D10000520FFF735FFFF20FFF732FF04460120B3
:102D20009D49C1F89C01204610BD10B50446002005
:102D3000984908600120FFF723FF2046FFF720FF96
:102D400001209549C1F89C0110BD10B500209149A2
:102D500008600620FFF714FF01208F49C1F89C018D
:102D600010BD10B500208B4908600420FFF708FF54
:102D700001208949C1F89C0110BD2DE9F0410646AA
:102D80000C4617460020834908600320FFF7F8FE31
:102D9000C4F30740FFF7F4FEC4F30720FFF7F0FE8B
:102DA000E0B2FFF7EDFE002505E0FF20FFF7E8FEAB
:102DB0007055681C85B2BD42F7DB0120754908607B
:102DC000BDE8F08110B500BFFFF79DFF00F00100E6
:102DD0000028F9D110BD2DE9F04106460C461746F2
:102DE000FFF7B3FF00206B4908600220FFF7C8FE21
:102DF000C4F30740FFF7C4FEC4F30720FFF7C0FE8B
:102E0000E0B2FFF7BDFE002504E0705DFFF7B8FEFD
:102E1000681C85B2BD42F8DB01205E490860FFF7FF
:102E2000D1FFBDE8F0812DE9F04107460E4614467A
:102E3000F0B2C0F58075AC4200DC254612E02A46AF
:102E400031463846FFF7C7FFAC4200D10BE02F44B4
:102E50002E44601B84B2B4F5807F02DD4FF4807590
:102E600000E02546EBE700BFBDE8F08110B5044661
:102E70002403FFF76AFFFFF7A5FF0020454908601C
:102E80002020FFF77DFEC4F30740FFF779FEC4F36F
:102E90000720FFF775FEE0B2FFF772FE01203E4902
:102EA000C1F89C01FFF78EFF10BD2DE9F047814668
:102EB0000F4616464FEA1738C7F30B0ACAF5805477
:102EC000A64200DC344644E04FEA08314FF4805219
:102ED0003348FFF752FF002508E00AEB05003049B0
:102EE000085CFF2800D003E0681C85B2A542F4DB33
:102EF00000BFA54216DA4046FFF7B8FF002507E0FD
:102F000019F8050005EB0A01254A5054681C85B2E2
:102F1000A542F5DB4FEA08314FF480522048FFF715
:102F200082FF04E0224639464846FFF77CFFA6426E
:102F300000D10FE008F101084FF0000AA144274436
:102F4000301B86B2B6F5805F02DD4FF4805400E09E
:102F50003446B9E700BFBDE8F08710B5FFF7F5FECE
:102F6000FFF730FF00200B490860C720FFF708FE7D
:102F700001200949C1F89C01FFF724FF10BD0000A2
:102F8000003C0040000C01400008014000023000FD
:102F9000880800209C81214200802142920000206C
:102FA0009A08002010B500200D490860B920FFF7ED
:102FB000E7FD01200B49C1F89C01032000F081FFCF
:102FC00010BD10B5002006490860AB20FFF7D8FD02
:102FD00001200449C1F89C01032000F072FF10BDDC
:102FE0009C8121420080214210B5044600BF02218D
:102FF000F84801F0B8FF0028F9D02146F54801F063
:103000005FFF00BF0121F34801F0ADFF0028F9D0B8
:10301000F04801F057FFC0B210BD70B504460D4630
:103020007E2000EA44061021EB4801F06AF93046A0
:10303000FFF7DAFF2846FFF7D7FF1021E64801F037
:103040005EF970BD70B504467E2000EA440040F091
:1030500080051021E04801F054F92846FFF7C4FF2D
:103060000020FFF7C1FF06461021DB4801F047F9B9
:10307000304670BD70B505460C462846FFF7E2FFA6
:10308000064626EA04012846FFF7C7FF70BD10B5C3
:1030900003211420FFF7EEFF10BD70B505460C4666
:1030A0002846FFF7CFFF064646EA04012846FFF709
:1030B000B4FF70BD10B51420FFF7C4FF044604F040
:1030C000030018B903211420FFF7E7FF10BD10B566
:1030D0000446412C24D108210846FFF7CBFF3D21AF
:1030E0001120FFF79AFF86211720FFF796FF7F2117
:1030F0002620FFF792FF1E212D20FFF78EFF0021D3
:103100002C20FFF78AFF8D212A20FFF786FF3E2122
:103110002B20FFF782FF022000F0D3FEFFF7CAFF4B
:1031200010BD10B54FF40061AB4801F0E8F8012084
:1031300000F0C7FE4FF40061A74801F0E2F801205B
:1031400000F0BFFE4FF40061A34801F0D8F8012061
:1031500000F0B7FE0F210120FFF75FFF00BF012045
:10316000FFF770FF00F010000028F8D1012000F0F8
:10317000A8FE3D211120FFF750FF1E212D20FFF753
:103180004CFF00212C20FFF748FF8D212A20FFF75C
:1031900044FF3E212B20FFF740FF40211520FFF781
:1031A0003CFF10BD00B587B0012141F2040001F0E1
:1031B000B5FA1020ADF804008DF8070003208DF853
:1031C000060001A9844800F0EDFF2020ADF80400BE
:1031D00018208DF8070003208DF8060001A97E480D
:1031E00000F0E0FF4020ADF8040018208DF8070043
:1031F00003208DF8060001A9774800F0D3FF802056
:10320000ADF8040018208DF8070003208DF80600A3
:1032100001A9714800F0C6FF4FF40060ADF804004A
:1032200010208DF8070003208DF8060001A96A48D8
:1032300000F0B8FF1021684801F061F80020ADF8F7
:1032400008004FF48270ADF80A000020ADF80C00C1
:10325000ADF80E00ADF810004FF40070ADF812009C
:103260002820ADF814000020ADF816000720ADF8B6
:10327000180002A9574801F04DFD0121554801F001
:10328000EEFD07B000BD10B5012054490870FFF7EE
:1032900089FF4FF40061504801F031F8FFF741FF1A
:1032A000FFF7F5FE022000F00CFEFFF703FF4120C0
:1032B000FFF70DFFFFF7EBFE10BD2DE9FE4F0646B1
:1032C000884691469A46DDF830B0022002900020F0
:1032D000019000900C2E06D00E2E09D112200190E4
:1032E0001020009005E0772001903020009000E051
:1032F00000BF00BF019840F080010220FFF78DFE63
:1033000080210420FFF7B6FE00210120FFF785FE93
:1033100080210A20FFF7C1FE002505E018F80510FE
:103320000920FFF77AFE6D1C4D45F7D33146012089
:10333000FFF773FE0C2E03D180210D20FFF7ADFEA9
:103340004FF47A7500BF0420FFF77CFE04466D1E23
:1033500035B104F0010018B9009820400028F2D0DF
:1033600080210D20FFF786FE95B30620FFF76AFE49
:1033700000F01B0068BB002002900198204000F084
:10338000010008B1012002900C2E2BD10A20FFF77A
:1033900059FE04460C20FFF755FE00F007072FB139
:1033A000601E07EBC000CBF8000002E0E000CBF8A5
:1033B000000004B90124122C00DD1224002505E0D0
:1033C0000920FFF73FFE0AF805006D1CA542F7D360
:1033D00008E005E000300140000801403100002015
:1033E0000220029080210C20FFF757FE00210120CF
:1033F000FFF713FE0298BDE8FE8F70B588B0054652
:103400000C4608210846FFF735FE07210D20FFF77F
:1034100004FE03211420FFF740FE8DF80C5002A893
:1034200003AB012203A900900C20FFF746FF0646DC
:103430004EB90298102806D19DF80C0020709DF816
:103440000D00607000E00226304608B070BDF0B597
:1034500087B00546002708210846FFF70BFE00212C
:103460000D20FFF7DAFD80210E20FFF703FE9320E9
:103470008DF8080020208DF8090001A802AB022277
:1034800002A900900C20FFF718FF064686B9002419
:1034900007E002A8005D285502A8005D4740601CB7
:1034A000C4B2042CF5DB02A8005DB84200D00226AD
:1034B00080210E20FFF7F1FD304607B0F0BD2DE969
:1034C000F04107468846154604210520FFF7D2FD46
:1034D00000210120FFF7A1FD80210A20FFF7DDFD7B
:1034E000002405E0395D0920FFF797FD601CC4B298
:1034F0004445F7DB03210120FFF78FFDFF2400BFC8
:103500000520FFF79FFD0646601EC4B21CB106F001
:1035100004000028F4D02220FFF794FD2870212019
:10352000FFF790FD6870BDE8F08170B588B0054682
:1035300093208DF80C0070208DF80D0000208DF880
:10354000120000240BE0295D03AAA01C11549DF871
:103550001200295D48408DF81200601CC4B2042C92
:10356000F1DB0DF11302072103A8FFF7A8FF0821E3
:103570000846FFF77FFD02A803AB092203A90090CC
:103580000C20FFF79AFE064626B90298182801D1AA
:10359000002600E00226304608B070BD2DE9F04359
:1035A00087B006460F46904699468DF808608DF81C
:1035B0000970002406E018F8041002AAA01C115497
:1035C000601CC4B2062CF6DB002407E019F80410D6
:1035D00002AA04F108001154601CC4B2062CF5DBE9
:1035E00001A802AB0C2202A900900E20FFF765FE95
:1035F00005462DB90820FFF725FD00F0080000B9A9
:103600000225284607B0BDE8F083F0B587B006462E
:103610000F46A0208DF808008DF809600DF10A0210
:10362000022102A8FFF74BFF01A802AB042202A966
:1036300000900C20FFF741FE054645B9019804288B
:1036400005D19DF8080000F00F000A2800D00225DF
:1036500035BB1022394602A802F0FEFC002404E02B
:10366000385D02A90855601CC4B2102CF8DB06AA0C
:10367000102102A8FFF723FF01A802AB122202A922
:1036800000900C20FFF719FE054645B90198042863
:1036900005D19DF8080000F00F000A2800D002258F
:1036A000284607B0F0BDF0B587B005460E4630207D
:1036B0008DF808008DF809500DF10A02022102A8C8
:1036C000FFF7FDFE01A802AB042202A900900C2026
:1036D000FFF7F3FD074667B90198902809D1002448
:1036E00004E002A8005D3055601CC4B2102CF8DB69
:1036F00000E00227384607B0F0BD00B587B0502083
:103700008DF8080000208DF809000DF10A02022151
:1037100002A8FFF7D4FE01A802AB042202A9009080
:103720000C20FFF7CAFD002007B000BD10B504460D
:1037300000BF0221FA4801F016FC0028F9D021460A
:10374000F74801F0BDFB00BF0121F54801F00BFC7B
:103750000028F9D0F24801F0B5FBC0B210BD70B539
:1037600004460D467E2000EA44064FF48051ED48A1
:1037700000F0C7FD3046FFF7D9FF2846FFF7D6FF18
:103780004FF48051E74800F0BAFD70BD70B50446B3
:103790007E2000EA440040F080054FF48051E1486B
:1037A00000F0AFFD2846FFF7C1FF0020FFF7BEFF86
:1037B00006464FF48051DB4800F0A1FD304670BD55
:1037C00070B505460C462846FFF7E0FF064626EA98
:1037D00004012846FFF7C3FF70BD10B50321142074
:1037E000FFF7EEFF10BD70B505460C462846FFF703
:1037F000CDFF064646EA04012846FFF7B0FF70BD3C
:1038000010B51420FFF7C2FF044604F0030018B9F6
:1038100003211420FFF7E7FF10BD10B50446412C2B
:1038200024D108210846FFF7CBFF3D211120FFF7E7
:1038300096FF86211720FFF792FF7F212620FFF7B2
:103840008EFF1E212D20FFF78AFF00212C20FFF77D
:1038500086FF8D212A20FFF782FF3E212B20FFF7D4
:103860007EFF022000F02DFBFFF7CAFF10BD10B550
:103870004FF48051AC4800F042FD012000F021FBE4
:103880004FF48051A84800F03CFD012000F019FBE6
:103890004FF48051A44800F032FD012000F011FBEC
:1038A0000F210120FFF75BFF00BF0120FFF76EFF34
:1038B00000F010000028F8D1012000F002FB3D21AB
:1038C0001120FFF74CFF1E212D20FFF748FF00219C
:1038D0002C20FFF744FF8D212A20FFF740FF3E21D7
:1038E0002B20FFF73CFF40211520FFF738FF10BDCC
:1038F00000B587B001210C2000F010FF01218803E2
:1039000000F019FF4FF48050ADF8040010208DF83E
:10391000070003208DF8060001A9824800F042FC50
:103920004FF40050ADF8040018208DF80700032074
:103930008DF8060001A97B4800F034FC4FF480406C
:10394000ADF8040018208DF8070003208DF806005C
:1039500001A9744800F026FC4FF40040ADF80400C3
:1039600018208DF8070003208DF8060001A96D4886
:1039700000F018FC4FF48050ADF8040010208DF8D2
:10398000070003208DF8060001A9674800F00AFC33
:103990004FF48051634800F0B2FC0020ADF80800FD
:1039A0004FF48270ADF80A000020ADF80C00ADF8BD
:1039B0000E00ADF810004FF40070ADF81200282092
:1039C000ADF814000020ADF816000720ADF818007F
:1039D00002A9534801F09EF90121514801F03FFA34
:1039E00007B000BD10B5022050490870FFF780FFF6
:1039F0004FF480514C4800F082FCFFF738FFFFF78E
:103A0000ECFE022000F05DFAFFF7FAFE4120FFF71E
:103A100004FFFFF7E2FE10BD2DE9FE4F0646884683
:103A200091469A46DDF830B00220029000200190C5
:103A300000900C2E06D00E2E09D1122001901020DD
:103A4000009005E0772001903020009000E000BF5A
:103A500000BF019840F080010220FFF780FE802126
:103A60000420FFF7ADFE00210120FFF778FE802142
:103A70000A20FFF7B8FE002505E018F80510092018
:103A8000FFF76DFE6D1C4D45F7D331460120FFF762
:103A900066FE0C2E03D180210D20FFF7A4FE4FF40B
:103AA0007A7500BF0420FFF771FE04466D1E35B124
:103AB00004F0010018B9009820400028F2D08021BD
:103AC0000D20FFF77DFE55B30620FFF75FFE00F0E7
:103AD0001B0068BB002002900198204000F001000C
:103AE00008B1012002900C2E2ED10A20FFF74EFEC5
:103AF00004460C20FFF74AFE00F007072FB1601EB6
:103B000007EBC000CBF8000002E0E000CBF80000BB
:103B100004B90124122C00DD122400250FE013E06B
:103B200000380040000C0140000801403100002036
:103B300008E00920FFF72AFE0AF805006D1CA542DF
:103B4000F7D301E00220029080210C20FFF74BFE0A
:103B500000210120FFF703FE0298BDE8FE8F70B53B
:103B600088B005460C4608210846FFF729FE0721C4
:103B70000D20FFF7F4FD03211420FFF734FE8DF82C
:103B80000C5002A803AB012203A900900C20FFF700
:103B900043FF06464EB90298102806D19DF80C0046
:103BA00020709DF80D00607000E00226304608B0DD
:103BB00070BDF0B587B00546002708210846FFF71D
:103BC000FFFD00210D20FFF7CAFD80210E20FFF729
:103BD000F7FD93208DF8080020208DF8090001A83A
:103BE00002AB022202A900900C20FFF715FF064647
:103BF00086B9002407E002A8005D285502A8005DF0
:103C00004740601CC4B2042CF5DB02A8005DB8423A
:103C100000D0022680210E20FFF7E5FD304607B0D8
:103C2000F0BD2DE9F04107468846154604210520E0
:103C3000FFF7C6FD00210120FFF791FD80210A203A
:103C4000FFF7D1FD002405E0395D0920FFF787FD6E
:103C5000601CC4B24445F7DB03210120FFF77FFD60
:103C6000FF2400BF0520FFF791FD0646601EC4B289
:103C70001CB106F004000028F4D02220FFF786FDD6
:103C800028702120FFF782FD6870BDE8F08170B5D3
:103C900088B0054693208DF80C0070208DF80D003B
:103CA00000208DF8120000240BE0295D03AAA01C5F
:103CB00011549DF81200295D48408DF81200601CD7
:103CC000C4B2042CF1DB0DF11302072103A8FFF7A6
:103CD000A8FF08210846FFF773FD02A803AB0922DD
:103CE00003A900900C20FFF797FE064626B902981C
:103CF000182801D1002600E00226304608B070BD29
:103D00002DE9F04387B006460F46904699468DF858
:103D100008608DF80970002406E018F8041002AA63
:103D2000A01C1154601CC4B2062CF6DB002407E072
:103D300019F8041002AA04F108001154601CC4B25E
:103D4000062CF5DB01A802AB0C2202A900900E2084
:103D5000FFF762FE05462DB90820FFF717FD00F0BA
:103D6000080000B90225284607B0BDE8F083F0B589
:103D700087B006460F46A0208DF808008DF8096030
:103D80000DF10A02022102A8FFF74BFF01A802ABC6
:103D9000042202A900900C20FFF73EFE054645B91B
:103DA0000198042805D19DF8080000F00F000A28AA
:103DB00000D0022535BB1022394602A802F04CF98A
:103DC000002404E0385D02A90855601CC4B2102C20
:103DD000F8DB06AA102102A8FFF723FF01A802AB17
:103DE000122202A900900C20FFF716FE054645B9E5
:103DF0000198042805D19DF8080000F00F000A285A
:103E000000D00225284607B0F0BDF0B587B00546C2
:103E10000E4630208DF808008DF809500DF10A0289
:103E2000022102A8FFF7FDFE01A802AB042202A9AD
:103E300000900C20FFF7F0FD074667B90198902825
:103E400009D1002404E002A8005D3055601CC4B212
:103E5000102CF8DB00E00227384607B0F0BD00B5B3
:103E600087B050208DF8080000208DF809000DF172
:103E70000A02022102A8FFF7D4FE01A802AB042225
:103E800002A900900C20FFF7C7FD002007B000BD7D
:103E900010B56FF0040000F0F8FE2E4800682E49BF
:103EA000B0FBF1F02D4908700846007800EB4001A6
:103EB000C1EBC0104FF6FF7101EAC000284908802D
:103EC00010BD0146254A12784A434FF0E0235A615B
:103ED00000229A611A46126942F001021A6100BF7B
:103EE0004FF0E022106900F001021AB100F48032B4
:103EF000002AF5D04FF0E022126922F001024FF0C3
:103F0000E0231A6100229A6170470146144A128820
:103F10004A434FF0E0235A6100229A611A4612691F
:103F200042F001021A6100BF4FF0E022106900F078
:103F300001021AB100F48032002AF5D04FF0E022DD
:103F4000126922F001024FF0E0231A6100229A6107
:103F5000704700007C00002000127A0094000020CE
:103F600096000020014600BF704700BF494A1288F2
:103F700002F04002002AF9D0C2B2464B1B1D1A8043
:103F8000704710B586B00446012144F2040000F0E9
:103F9000C5FB4FF40070ADF8140003208DF8160037
:103FA00018208DF8170005A93B4800F0FBF84FF4E6
:103FB0008060ADF8140004208DF8170005A936487C
:103FC00000F0F0F825208DF8000003208DF80100A6
:103FD0008DF8020001208DF80300684600F00BFE0A
:103FE00001940020ADF80800ADF80A00ADF80C000F
:103FF000ADF810000C20ADF80E0001A9254800F026
:1040000034FC012240F22551224800F0C6FC012177
:10401000204800F0B6FC06B010BD10B540F22551A6
:104020001C4800F09FFD10B31A4800F01BFDC4B2FD
:104030001A48008800F40040C8B91848008800F405
:10404000804060B10A2C03D000201449088020E091
:104050001248008840F400401049088019E00D2CF7
:1040600006D10E48008840F480400C49088010E0DA
:104070000A480088C0F30D0009490C54074800881D
:10408000401C0649088008460088C72801DD00203A
:10409000088010BD00380140000801409C0000204D
:1040A0009A1800200948804709480047FEE7FEE7C4
:1040B000FEE7FEE7FEE7FEE7FEE7FEE7FEE7FEE7D8
:1040C00004480549054A064B704700007F25000853
:1040D00031010008C8190020C81F0020C81B00209B
:1040E000C81B002010B50446CC48844208D10121E9
:1040F000042000F02DFB0021042000F029FB46E005
:10410000C748844208D10121082000F021FB00218A
:10411000082000F01DFB3AE0C248844208D101218A
:10412000102000F015FB0021102000F011FB2EE004
:10413000BD48844208D10121202000F009FB002164
:10414000202000F005FB22E0B848844208D101217C
:10415000402000F0FDFA0021402000F0F9FA16E0BE
:10416000B348844208D10121802000F0F1FA0021F7
:10417000802000F0EDFA0AE0AE48844207D1012128
:10418000801500F0E5FA0021A01500F0E1FA10BD5D
:1041900010B50121084600F0DBFA0021012000F0F3
:1041A000D7FA10BD2DE9F041024600250026002077
:1041B00000230024002791F803C00CF00F0591F8AC
:1041C00003C00CF0100CBCF1000F03D091F802C03A
:1041D0004CEA050591F800C0BCF1000F31D014681D
:1041E00000202BE04FF0010C0CFA00F3B1F800C0F6
:1041F0000CEA03069E4220D183004FF00F0C0CFA0C
:1042000003F7BC4305FA03FC4CEA040491F803C02D
:10421000BCF1280F06D14FF0010C0CFA00FCC2F8DB
:1042200014C00AE091F803C0BCF1480F05D14FF06B
:10423000010C0CFA00FCC2F810C0401C0828D1D3B5
:104240001460B1F800C0BCF1FF0F34DD54680020E9
:104250002EE000F1080C4FF0010808FA0CF3B1F859
:1042600000C00CEA03069E4221D183004FF00F0CE0
:104270000CFA03F7BC4305FA03FC4CEA040491F87A
:1042800003C0BCF1280F05D100F1080C08FA0CF8A6
:10429000C2F8148091F803C0BCF1480F07D100F1B7
:1042A000080C4FF0010808FA0CF8C2F81080401C06
:1042B0000828CED35460BDE8F0814FF6FF7101802D
:1042C000022181700421C17070470246002093686A
:1042D0000B400BB1012000E00020704701468868C8
:1042E00080B2704702460020D3680B400BB101201A
:1042F00000E0002070470146C86880B27047016145
:104300007047416170470AB1016100E04161704747
:10431000C16070474FF480320A43826181618261DB
:1043200082698269704702460020434B18684FF645
:104330008073184040EA021008433F4B18607047F2
:104340003E49C8617047F0B50A46002300240021A9
:10435000002500F00046B6F1004F02D1364EF1695B
:1043600001E0354E7168C0F3034583B200F4401696
:10437000B6F5401F08D121F070612F4E766826F007
:1043800070662D4F7E6012E000F48016B6F5801F37
:1043900006D1032606FA05F4A14341F0706106E058
:1043A000460D360103FA06F6B14341F0706122B1C1
:1043B000460D360103FA06F6314300F00046B6F129
:1043C000004F02D11C4EF16101E01B4E7160F0BD47
:1043D00030B500228B071C0F0F2303FA04F2164B93
:1043E00008338C1053F824309343134C08348D1049
:1043F00044F8253023468C1053F824308C07240FC2
:1044000000FA04F423430C4C08348D1044F8253092
:1044100030BD0A49DC3108607047000000080140E7
:10442000000C014000100140001401400018014040
:10443000001C01400020014000000140000020421B
:10444000DF48006840F00100DD4908600846406828
:10445000DC490840DA49486008460068DA49084003
:10446000D74908600846006820F4802008600846A4
:10447000406820F4FE0048604FF41F0088607047D9
:10448000CF49096821F48031CD4A1160114609688D
:1044900021F480211160B0F5803F03D0B0F5802F6A
:1044A0000ED106E0C649096841F48031C44A116062
:1044B00007E0C349096841F4A021C14A116000E046
:1044C00000BF00BF704710B5014600220023002046
:1044D0004A11012A02D1BA4C236806E0022A02D10D
:1044E000B74C236A01E0B64C636A01F01F02012455
:1044F00094401C400CB1012000E0002010BD38B5F4
:10450000002000900024002500BF3120FFF7DBFFD2
:1045100005460098401C00900098B0F5A06F01D0AF
:10452000002DF2D03120FFF7CEFF08B1012400E0CA
:104530000024204638BD01460020A14A106820F022
:10454000F80040EAC10010607047A0490860704759
:10455000024600209A4B586820F47C1042EA01037E
:104560001843974B58607047984908667047014652
:104570000020934A506820F00300084350607047C1
:104580008F48406800F00C007047014600208C4ABC
:10459000506820F0F000084350607047014600204A
:1045A000874A506820F4E060084350607047014635
:1045B0000020834A506820F4605040EAC1005060F7
:1045C000704729B17E4A527A02437D4B5A7204E009
:1045D0007B4A527A82437A4B5A7270477B49D83170
:1045E0000860704701460020754A506820F440403A
:1045F0000843506070470021714A20321170704AA0
:1046000082F82010012802D004280AD104E00121F8
:104610006B4A2032117005E00521694A2032117081
:1046200000E000BF00BF70476949086070476449F7
:10463000096A0143624A116270476549443908605A
:10464000704730B500210022002400235C4D6D68C6
:1046500005F00C0121B1042905D0082923D105E07A
:104660005C4D056022E05B4D05601FE0544D6D68B8
:1046700005F47012524D6D6805F48034022505EB87
:1046800092421CB9544D554305600BE04C4D6D688A
:1046900005F400351DB1504D5543056002E04D4D08
:1046A0005543056002E04B4D056000BF00BF444D1F
:1046B0006D6805F0F0010909484D6B5C0568DD4047
:1046C00045603F4D6D6805F4E061090A434D6B5C40
:1046D0004568DD4085603A4D6D6805F46051C90A52
:1046E0003E4D6B5C4568DD40C560354D6D6805F439
:1046F0004041890B3A4D6B5CC568B5FBF3F505612C
:1047000030BD29B12E4A526902432D4B5A6104E053
:104710002B4A526982432A4B5A61704729B1284A71
:1047200092690243264B9A6104E0254A92698243CA
:10473000234B9A61704729B1214AD2690243204B29
:10474000DA6104E01E4AD26982431D4BDA61704788
:1047500029B11B4AD2680243194BDA6004E0184AB7
:10476000D2688243164BDA60704729B1144A126945
:104770000243134B1A6104E0114A12698243104B41
:104780001A61704712494039086070470F49C86480
:1047900070470B49C87170470948406A40F0807003
:1047A00007494862704701460020054A92680A405E
:1047B0000AB1012000E0002070470149887270476B
:1047C000001002400000FFF8FFFFF6FE000042422A
:1047D0008004424200127A0000093D009E00002041
:1047E000AE00002010B50446FB48844209D10121E7
:1047F0008803FFF7ADFF00214FF48040FFF7A8FFCB
:1048000032E0F648844209D101214804FFF7ADFFA8
:1048100000214FF40030FFF7A8FF25E0F048844264
:1048200009D101218804FFF7A0FF00214FF4802067
:10483000FFF79BFF18E0EB48844209D10121C8042F
:10484000FFF793FF00214FF40020FFF78EFF0BE0EE
:10485000E548844208D101210805FFF786FF0021C1
:104860004FF48010FFF781FF10BD2DE9F04786B0AF
:1048700005460E460024A24600BFA1460027B08987
:1048800000B100BF2F462C8A4CF6FF700440F08820
:1048900004432C82AC894EF6F3100440B088318971
:1048A0000843718908430443AC81AC8A4FF6FF404A
:1048B0000440B0890443AC8201A8FFF7C2FEC64899
:1048C000874202D1DDF810A001E0DDF80CA0A88934
:1048D00000F4004040B10AEBCA0000EB0A10316856
:1048E0004900B0FBF1F807E00AEBCA0000EB0A1040
:1048F00031688900B0FBF1F86420B8FBF0F00401E6
:104900002009642101FB1089A88900F4004040B10E
:10491000322000EBC900B0FBF1F000F007000443C7
:1049200008E0322000EB09106421B0FBF1F000F048
:104930000F0004432C8106B0BDE8F0874FF41651F8
:10494000016000218180C18001810C214181002111
:104950008181704710B502460020108A4FF2FF0394
:1049600018400B884C8823438C882343CC882343EE
:104970001843108210BD0021018041808180C180D8
:10498000704721B1828942F40052828104E0828919
:104990004DF6FF731A4082817047F0B5034600243C
:1049A00000260025002040F66A17B94200D100BF5A
:1049B0001846C1F3421401F01F06012707FA06F555
:1049C000012C01D10C3004E0022C01D1103000E0A8
:1049D00014301AB107682F43076002E00768AF433D
:1049E0000760F0BD1AB1838A0B43838202E0838A99
:1049F0008B4383827047028A4FF6F0731A4002821B
:104A0000028A0A430282704782894FF2FF731A407A
:104A1000828182890A438281704721B1828942F072
:104A20000202828104E082894FF6FD731A4082817E
:104A30007047028A4FF6DF731A400282028A0A43E5
:104A40000282704721B1028A42F48042028204E06D
:104A5000028A4BF6FF731A4002827047C1F30802C4
:104A60008280704701468888C0F3080070478189BA
:104A700041F0010181817047028BD2B20283028B27
:104A800042EA012202837047028B02F47F420283D2
:104A9000028B0A430283704721B1828A42F02002CE
:104AA000828204E0828A4FF6DF731A408282704766
:104AB00021B1828A42F01002828204E0828A4FF69B
:104AC000EF731A408282704721B1828A42F0080255
:104AD000828204E0828A4FF6F7731A40828270471E
:104AE00021B1828942F40042828103E08289C2F3CB
:104AF0000E028281704721B1828A42F40062828272
:104B000004E0828A4FF2FF731A4082827047828AE1
:104B10004FF6FB731A408282828A0A438282704770
:104B200021B1828A42F00202828204E0828A4FF638
:104B3000FD731A408282704702460020B1F5007F63
:104B400000D100BF13880B400BB1012000E0002012
:104B5000704701F40072B2F5007F00D100BFCA4374
:104B60000280704770B50246002400230025002013
:104B700040F66A16B14200D100BFC1F3421501F000
:104B80001F03012606FA03F3012D02D19689334053
:104B900006E0022D02D1168A334001E0968A3340A6
:104BA0000C12012606FA04F41688344013B10CB135
:104BB000012000E0002070BD10B50022002340F667
:104BC0006A14A14200D100BF0A1201249440A3B28A
:104BD000DC43048010BD0000003801400044004068
:104BE00000480040004C0040005000403149014363
:104BF000314A1160704770B5002100230F22C4783C
:104C000004B32D4C246804F4E064C4F5E064210A84
:104C1000C1F10403CA40447804FA03F184781440D3
:104C200021430901254C0678A155047804F01F059D
:104C30000124AC4005786D11AD0005F1E025C5F803
:104C4000004109E0047804F01F050124AC401C4D2C
:104C50000678761145F8264070BD1A4A0A4002438C
:104C6000154B1B1F1A60704739B1134A121D126889
:104C70000243114B1B1D1A6006E00F4A121D1268F9
:104C800082430D4B1B1D1A607047042808D14FF05A
:104C9000E021096941F004014FF0E022116107E0D1
:104CA0004FF0E021096921F004014FF0E022116189
:104CB000704700000000FA050CED00E000E400E0A1
:104CC00080E100E080FFFF1F10B50446BE4884422B
:104CD00008D101218014FFF73BFD0021A014FFF74C
:104CE00037FD16E0B948844208D101210014FFF7CE
:104CF0003CFD00212014FFF738FD0AE0B44884424F
:104D000007D10121C013FFF730FD0021E013FFF7A9
:104D10002CFD10BD10B50022028802F441520B8810
:104D20004C8823438C882343CC8823430C8923431A
:104D30004C8923438C892343CC8923431A43028023
:104D4000838B4FF2FF74234083830B8A038210BD51
:104D50002DE9F04F85B005460C464FF000090227BB
:104D60004FF000084FF0010B0026B246A88B4FF21F
:104D700040010840A88302202884B5F81C90A06850
:104D8000022801D100BF38E0A08810B94FF0010B14
:104D900001E04FF0020B8D48854200D100E000BFDA
:104DA0006846FFF74EFCDDF800A0E088B0F5007F14
:104DB0000AD14FEA1A2000EB80004000A168B0FB46
:104DC000F1F0401D86B20BE04FEA4B10BAFBF0F059
:104DD00000EB80004000A168B0FBF1F0401D86B2FE
:104DE0000A20B6FBF0F606F00108A6EB0800C0F3B7
:104DF0004F074FF6FF7000EA0828022F01DBFF2F54
:104E000002DD02274FF00008E08840EA080038433E
:104E10002884A088A1890843618808432188084321
:104E200040F4006040EA0909A5F81C9005B0BDE80F
:104E3000F08F0021018041808180C180018141810A
:104E40008181C18107210182704700210180418059
:104E50008180C1800221816000218181704721B160
:104E6000028842F04002028004E002884FF6BF73DD
:104E70001A400280704721B1828B42F480628283A3
:104E800004E0828B4FF6FF331A408283704730B5BF
:104E9000002400230C110125A540ABB21AB185886E
:104EA0001D43858002E085889D43858030BD1AB111
:104EB00083880B43838002E083888B438380704721
:104EC000818170470146888970474FF6FF629142A1
:104ED00004D0028842F48072028004E002884FF617
:104EE000FF631A400280704721B1828842F00402B9
:104EF000828004E082884FF6FB731A4082807047FC
:104F000002884FF2FF731A40028002880A4302802F
:104F10007047018841F480510180704721B10288B7
:104F200042F40052028004E002884DF6FF731A40FA
:104F30000280704702460020012901D0108B00E05A
:104F4000908A70470146088A7047B1F5804F04D1B6
:104F5000028842F48042028004E002884BF6FF732C
:104F60001A40028070470246002013890B400BB1A3
:104F7000012000E000207047CA4302817047F0B56D
:104F80000246002000240023002501F00F0701261F
:104F9000BE40B4B20B1101269E40B3B2968806EA19
:104FA00003051689264016B10DB1012000E000204E
:104FB000F0BD10B5002201F00F040123A3409AB206
:104FC000D343038110BD0000003001400038004091
:104FD000003C004010B50446FE48844208D101213F
:104FE000C014FFF7B5FB0021E014FFF7B1FBC4E0EC
:104FF000B4F1804F08D101210846FFF7B6FB00212C
:105000000120FFF7B2FBB8E0F348844208D1012148
:105010000220FFF7AAFB00210220FFF7A6FBACE06D
:10502000EE48844208D101210420FFF79EFB0021B5
:105030000420FFF79AFBA0E0E948844208D101214F
:105040000820FFF792FB00210820FFF78EFB94E079
:10505000E448844208D101211020FFF786FB00219B
:105060001020FFF782FB88E0DF48844208D101214D
:105070002020FFF77AFB00212020FFF776FB7CE061
:10508000DA48844208D101214014FFF761FB002176
:105090006014FFF75DFB70E0D548844209D101211F
:1050A000C804FFF755FB00214FF40020FFF750FB29
:1050B00063E0D048844209D101210805FFF748FB8D
:1050C00000214FF48010FFF743FB56E0CA488442AA
:1050D00009D101214805FFF73BFB00214FF40010E7
:1050E000FFF736FB49E0C548844208D10121402042
:1050F000FFF73BFB00214020FFF737FB3DE0C048B6
:10510000844208D101218020FFF72FFB002180205D
:10511000FFF72BFB31E0BB48844208D10121801509
:10512000FFF723FB0021A015FFF71FFB25E0B64882
:10513000844209D101210804FFF70AFB00214FF442
:105140008030FFF705FB18E0B048844209D1012107
:105150004804FFF7FDFA00214FF40030FFF7F8FA9A
:105160000BE0AB48844208D101218804FFF7F0FA34
:1051700000214FF48020FFF7EBFA10BD00220288D7
:10518000944B98420ED0994B98420BD0B0F1804F7F
:1051900008D0914B984205D0904B984202D0904B4A
:1051A000984204D14FF68F731A404B881A438D4BA7
:1051B000984207D08C4B984204D04FF6FF431A40D8
:1051C000CB881A4302808B8883850B880385814BAB
:1051D00098420BD0854B984208D08B4B984205D013
:1051E0008A4B984202D08A4B984201D10B7A0386AF
:1051F00001238382704770B5002400220023058CB0
:105200004FF6FE7635400584028C8388048B4FF67A
:105210008F752C40B51E2C400D882C43751E2A40DE
:105220000D892A434D882A436A4DA8420BD06F4D01
:10523000A84208D0744DA84205D0744DA84202D0AF
:10524000734DA84213D14FF6F7752A404D892A4372
:105250004FF6FB752A408D882A434FF6FF652B4099
:105260004FF6FF552B408D892B43CD892B438380EF
:105270000483CD888586028470BD70B50024002229
:105280000023058C4FF6EF7635400584028C838829
:10529000048B48F6FF752C404FF6FF452C400D88D7
:1052A0004FF6FF7606EA05252C434FF6DF752A40B8
:1052B0000D8906EA05152A434D8806EA05152A4395
:1052C000444DA84202D0494DA8421DD14FF67F75EA
:1052D0002A404D894FF6FF7606EA05152A434FF618
:1052E000BF752A408D8806EA05152A434FF6FF351B
:1052F0002B404FF2FF752B408D8906EA85052B4325
:10530000CD8906EA85052B4383800483CD880587F4
:10531000028470BD70B5002400220023058C4FF676
:10532000FF6635400584028C8388848B4FF68F7529
:105330002C404FF6FC752C400D882C434FF6FF5542
:105340002A400D894FF6FF7606EA05252A434D8847
:1053500006EA05252A431F4DA84202D0234DA84244
:105360001DD14FF2FF752A404D894FF6FF7606EAB0
:1053700005252A434FF6FF352A408D8806EA052584
:105380002A434EF6FF752B404DF6FF752B408D8955
:1053900006EA05152B43CD8906EA05152B438380C4
:1053A0008483CD888587028470BD70B50022002378
:1053B0000024058C4EF6FF7635400584038C8488E6
:1053C000828B48F6FF752A404FF6FF452A400D882C
:1053D00020E00000002C01400004004000080040D4
:1053E000000C004000100040001400400034014058
:1053F000004C0140005001400054014000180040A2
:10540000001C0040002000400040014000440140DA
:10541000004801404FF6FF7606EA05252A434DF67F
:10542000FF752B400D8906EA05352B434D8806EAAA
:1054300005352B43FA4DA84202D0FA4DA84208D1B7
:105440004BF6FF752C408D894FF6FF7606EA8515E1
:105450002C4384808283CD88A0F84050038470BDA3
:10546000828B4FF2FF331A408283828B4FF6FF7399
:1054700003EA01231A4382837047F0B50C461546B0
:10548000002200210026078C4EF6FF7C07EA0C075D
:105490000784828B018C4FF6FF7707EA043640F6CB
:1054A000FF473A404FF6FF7707EA05273A434FF6A2
:1054B000FF7707EA03373A43D94FB8420ED0D94FA6
:1054C000B8420BD0B0F1804F08D0D74FB84205D0CA
:1054D000D64FB84202D0D64FB84206D14DF6FF772C
:1054E000394046F48057394305E047F6FF573940C5
:1054F00044F48057394382830184F0BD828B4FF698
:10550000F3731A408283828B0A4382837047F0B51B
:105510000C461546002200210026078C4FF6FF6C32
:1055200007EA0C070784828B018C4FF6FF7707EAA6
:1055300004264FF60C773A404FF6FF7707EA031739
:105540002F433A43B64FB8420ED0B64FB8420BD0B5
:10555000B0F1804F08D0B44FB84205D0B34FB84235
:1055600002D0B34FB84206D14FF6FF57394046F448
:105570008077394305E04FF2FF57394044F4807794
:10558000394382830184F0BD028B4FF2FF331A400E
:105590000283028B4FF6FF7303EA01231A4302834F
:1055A0007047F0B50C461546002200210026078CF6
:1055B0004FF6EF7C07EA0C070784028B018C4FF64D
:1055C000FF7707EA041640F6FF473A404FF6FF77A9
:1055D00007EA03373A434FF6FF7707EA05273A43CE
:1055E0008F4FB8420ED08F4FB8420BD0B0F1804FE2
:1055F00008D08D4FB84205D08C4FB84202D08C4FA6
:10560000B84206D14FF6DF77394046F010073943EC
:1056100005E04FF65F77394044F0100739430283C5
:105620000184F0BD028B4FF6F3731A400283028BA4
:105630000A4302837047F0B50C461546002200214C
:10564000068C4FF6FE773E400684028B018C4FF6A7
:105650000C7632407E1C06EA03162E433243704E0F
:10566000B0420ED06F4EB0420BD0B0F1804F08D098
:105670006D4EB04205D06D4EB04202D06C4EB0427D
:1056800006D14FF6FD76314044F00106314305E086
:105690004FF6F576314044F0010631430283018430
:1056A000F0BD70B505460C465D4885420ED05D489C
:1056B00085420BD0B5F1804F08D05B48854205D0BC
:1056C0005A48854202D05A48854200D100E000BFC6
:1056D000208850B92389A28861882846FFF7ABFF4C
:1056E000E1882846FFF79EFF25E0208804280AD19C
:1056F0002389A28861882846FFF753FFE18828465E
:10570000FFF742FF17E0208808280AD12389A288E2
:1057100061882846FFF7FBFEE1882846FFF7EEFE8A
:1057200009E02389A28861882846FFF7A6FEE18860
:105730002846FFF795FE70BD2DE9F04105460C4661
:1057400000260127608808B9022600E00026A0880C
:10575000012801D1022700E001272088A0B9238970
:10576000A28861882846FFF766FFE1882846FFF790
:1057700059FF23893A4631462846FFF712FFE18850
:105780002846FFF701FF13E02389A2886188284695
:10579000FFF707FFE1882846FFF7F6FE23893A4620
:1057A00031462846FFF747FFE1882846FFF73AFFD2
:1057B000BDE8F0810A884B881A438B881A43CB884E
:1057C0001A430B891A434B891A438B891A43A0F851
:1057D000442070474FF6FF71818000210180C18015
:1057E0004180017270470021018041808180C18029
:1057F000018141818181C181704700210180418007
:10580000012181800021C180018170470021018038
:1058100041808180C1800181418181817047000088
:10582000002C01400034014000040040000800400A
:10583000000C004021B1028842F00102028004E025
:1058400002884FF6FE731A400280704731B1B0F8FB
:10585000442042F40042A0F8442005E0B0F844207F
:10586000C2F30E02A0F8442070471AB183890B439B
:10587000838102E083898B438381704781827047F3
:1058800041EA0203A0F8483070471AB183890B43FC
:10589000838102E083898B438381704701894FF6BE
:1058A000F8721140018170470A46002101894FF6C4
:1058B0008F73194011430181704730B504460D467E
:1058C00029462046FFF7F0FF208940F0070020819D
:1058D00030BD2DE9F04104460D4616461F46602DA9
:1058E00006D13B46012231462046FFF75AFE05E02D
:1058F0003B46012231462046FFF79DFE29462046C1
:10590000FFF7D2FF208940F007002081BDE8F08139
:1059100030B50C4600210189C9B24FF6FF7505EA82
:105920000325154325432943018130BD2DE9F0416D
:1059300005460E4617469846002443463A463146E9
:105940002846FFF7E5FF2C894FF6F870044044F035
:1059500007044FF68F70044044F070042C81BDE8BA
:10596000F081F0B504460D4616461F463B463246CA
:1059700029462046FFF7CCFF208940F48040208153
:10598000F0BD0185828270470A46002101884FF6EA
:105990008F731940114301807047F0B50C461546CE
:1059A0001E460021002200230189028B038C4FF642
:1059B000F877394021434FF6FC473A4040F201174F
:1059C0003A434FF6DD773B404FF6FF7707EA06177D
:1059D0002F433B43018102830384F0BD0A4600212B
:1059E000018B4FF68F7319401143018370470A46AC
:1059F0000021018B48F6FF7319404FF6FF7303EA4D
:105A000002231943018370470A460021818B4FF618
:105A10008F7319401143818370470A460021818B9F
:105A200048F6FF7319404FF6FF7303EA0223194348
:105A30008183704721B1028842F08002028004E035
:105A400002884FF67F731A400280704721B1828826
:105A500042F00402828004E082884FF6FB731A4011
:105A60008280704721B1828842F00802828004E07F
:105A700082884FF6F7731A408280704721B182887E
:105A800042F00102828004E082884FF6FE731A40E1
:105A9000828070470A460021018B4FF6F773194048
:105AA0001143018370470A460021018B4FF2FF73B7
:105AB00019404FF6FF7303EA02231943018370472D
:105AC0000A460021818B4FF6F773194011438183F9
:105AD00070470A460021818B4FF2FF7319404FF641
