:020000040800F2
:10000000C81F002011430008992500089B250008FF
:100010009F250008A3250008A72500080000000070
:10002000000000000000000000000000AB250008F8
:10003000AD25000800000000AF250008B12500082C
:100040002B4300082B4300082B4300082B430008D8
:100050002B4300082B4300082B4300082B430008C8
:100060002B4300082B4300082B4300082B430008B8
:100070002B4300082B4300082B4300082B430008A8
:100080002B4300082B4300082B4300082B43000898
:100090002B4300082B4300082B4300082B43000888
:1000A0002B4300082B4300082B4300082B43000878
:1000B000FF2A0008672A0008972B00082B43000836
:1000C0002B4300082B4300082B4300082B43000858
:1000D0002B43000809420008DD4200082B430008BA
:1000E0002B4300082B4300082B4300082B43000838
:1000F0002B4300082B4300082B4300082B43000828
:100100002B4300082B430008312C00082B43000828
:100110002B4300082B4300082B4300082B43000807
:100120002B4300082B4300082B4300082B430008F7
:1001300000F002F800F04DF80AA090E8000C8244AC
:100140008344AAF10107DA4501D100F042F8AFF289
:10015000090EBAE80F0013F0010F18BFFB1A43F0A5
:1001600001031847D0780000F0780000103A24BF4F
:1001700078C878C1FAD8520724BF30C830C144BF0C
:1001800004680C607047000000230024002500264E
:10019000103A28BF78C1FBD8520728BF30C148BFEA
:1001A0000B607047662907F0EF83642905F0B2877A
:1001B000632906F04083002070471FB506F08CFBD2
:1001C00004000020002107F0E1F8E0601FBD10B539
:1001D00010BD06F099FC1146FFF7EFFF02F023F87F
:1001E00006F0B7FC03B4FFF7F2FF03BC03F044FFD3
:1001F00070B505460E46002405E0295DFAA005F01D
:100200002DFF601CC4B2B442F7DB70BD2DE9F04194
:1002100006460F4614461D46012D20D102F0D4FF9C
:100220003946304603F073F9F04908700846007803
:1002300078B902200870204603F093F9EB49087062
:100240000846007828B902F0ACFFE8480078BDE81D
:10025000F0810220E549087008460078F7E703F0CE
:1002600059FB3946304603F004FDE0490870084662
:10027000007870B902200870204603F024FDDB49A5
:1002800008700846007820B903F031FBD7480078A1
:10029000DDE70220D549087008460078D7E72DE948
:1002A000FC4100250120D2490870D2490870D2488B
:1002B00042780178D1480378D1A005F0CFFED2A0D2
:1002C00005F0CCFE642003F0AAFECB48427801780A
:1002D000CA480378CAA005F0C1FECDA005F0BEFE55
:1002E0005EE164E0D348008800F40040002836D086
:1002F000D048067800240BE0CF48005D0DF80400DC
:100300001DF804003038C0B20DF80400601CC4B2FF
:10031000B442F1DB0020C74908809DF8000009289D
:100320001DD19DF80100062819D10020B14908709F
:10033000B14842780178B1480378B1A005F08EFE4B
:10034000642003F06CFEAC4842780178AB48037837
:10035000ABA005F083FEB9A005F080FE2BE0A44819
:100360000378BC4ABC495220FFF750FF00281ED139
:1003700002209E490870A048427801789F4803787F
:100380009FA005F06BFEB5A005F068FE002406E016
:10039000B048015D94A005F061FE601CC4B2042C5D
:1003A000F6DBA3A005F05AFE0220914908709048A0
:1003B0000078012896D000BFECE09E48008800F449
:1003C0000040002836D09B48067800240BE09A486D
:1003D000005D0DF804001DF804003038C0B20DF8BF
:1003E0000400601CC4B2B442F1DB002091490880D3
:1003F0009DF8000009281DD19DF80100062819D19B
:1004000000207C4908707C48427801787B4803785A
:100410007BA005F023FE642003F001FE76484278BD
:1004200001787648037876A005F018FE83A005F0E1
:1004300015FEB4E06E480378914A87495220FFF7D1
:10044000E5FE0028B8D10220684908706A48427861
:1004500001786A4803786AA005F000FE89A005F0DB
:10046000FDFD002406E08648015D5FA005F0F6FD75
:10047000601CC4B2042CF6DB6DA005F0EFFD002477
:1004800009E07F48005D7349095D884201D1781C0D
:10049000C7B2601CC4B2042CF3DB642003F0BFFDC0
:1004A000042F48D104208049087080480068A0F5D6
:1004B0007A700A46127805FB02017B48027865488B
:1004C00002F07DFD79480068A0F57A70764A1278CE
:1004D00005FB02017448027801A802F0D8FC4648E6
:1004E000427801784548037845A005F0B7FD70A033
:1004F00005F0B4FD002406E001A8015D3AA005F076
:10050000ADFD601CC4B2042CF6DB49A005F0A6FDCD
:100510000027681CC5B2642003F081FD364842788C
:1005200001783648037836A005F098FD294666A084
:1005300005F094FD0AE03048427801782F480378AE
:100540002FA005F08BFD65A005F088FD312D1EDD87
:100550000020284908702649087027484278017809
:100560002648037826A005F079FD294663A005F00A
:1005700075FD642003F053FD1F48427801781F4841
:1005800003781FA005F06AFD2CA005F067FD01208F
:10059000174908701648007802283FF40EAF00BFD4
:1005A0001448007801283FF49CAEBDE8FC8138B5C2
:1005B000002500205949087001205949087059A0A8
:1005C00005F04CFD02220A215F4802F060FCE7E0E2
:1005D00036480068A0F57A7000EB85010422684671
:1005E00002F055FC0024BCE0256420000E00002031
:1005F0003100002033000020740000207A00002029
:10060000256325632563000043393631310D0A0027
:100610004153746172742073617665205246494477
:10062000206C6162656C20746F205732355136340E
:100630000D0A00009C0000209A18002041536176AA
:10064000652052464944206C6162656C206F766576
:10065000720D0A0006000020040000204154686565
:10066000206C6162656C206964656E746966696599
:100670006420627920524649442D3120697320005C
:100680000A00002041546865206C6162656C206935
:1006900064656E74696669656420627920524649B2
:1006A000442D3220697320007100002000000020DA
:1006B00041536176652052464944206C6162656C05
:1006C000206973200000000041536176655F4E751C
:1006D0006D62657220697320256400004153617664
:1006E00065204572726F723A524649442D3120217D
:1006F0003D20524649442D320000000041536176AE
:10070000652052464944206C6162656C206E756DAF
:100710006265723A25640D0A000000003200002074
:10072000340000204153746172742072656164204A
:1007300052464944206C6162656C20696E205732D4
:10074000355136340D0A0000400000201DF8040029
:10075000FF2804D1FE480078401CFD490870601C49
:10076000C4B2042CF2DBFA480078042805D100203A
:10077000F8490870F649087017E0002407E01DF8F2
:100780000400F54901EB85010855601CC4B2042C36
:10079000F5DB681CC5B2312D02DD0020ED49087083
:1007A000EC48007801283FF413AF00BF38BD1CB5FA
:1007B0000022EA4BEA4903C907F0B0F814D8E94827
:1007C00042780178E8480378AFF2CC1005F046FC97
:1007D000E64803C8CDE90001E1480CC8E4480168D7
:1007E000E4A005F03BFC13E0DE4842780178DE48E7
:1007F0000378AFF2F41005F031FCDC4903C9CDE910
:100800000001D7480CC8DA480168DFA005F026FCD3
:10081000E3A005F023FC4FF48071E34803F0A7FE4A
:100820004FF40061E14803F0A2FE0421E04803F028
:100830009EFE4FF48071DF4803F099FE322003F0F2
:10084000EEFB4FF48071D84803F08FFE4FF4006147
:10085000D64803F08AFE0421D54803F086FE4FF403
:100860008071D44803F081FE02F065F902F019F9B5
:1008700002F0AFF902F0FAF900204FF080418884CD
:10088000CD490880CD490880CD490880CD49086010
:10089000CD490860CD490860CD490860CD49086060
:1008A0000120CD4908700020CC490870CC4908705F
:1008B000CC490870CC4908700021AC4A11605160E5
:1008C0001CBD2DE9FE430120C44908700020C24927
:1008D00008700220C5490870A24842780178A248F1
:1008E0000378AFF2E42005F0B9FBA1480168C0A08D
:1008F00005F0B4FBC1A005F0B1FBB1E2C6E0C3480E
:10090000008800F40040002873D0C04890F80090A0
:10091000002409E0BE48005D02A9085502A8005D58
:1009200030380855601CC4B24C45F3DB0020B74991
:1009300008809DF80800092808D19DF8090028B909
:10094000A548007810B9FFF732FFA4E09DF8080031
:10095000002863D19DF8090000285FD199480068FC
:100960006421B0FBF1F7384606F08AFE05467F4861
:100970000CC8284606F0D4FE794A03C291480068A4
:10098000A44908604FF0804005F041FBA24908608F
:100990000968A04A12684FF6E85303FB021006F0FC
:1009A0006FFE074600229D4B06F012FD05466F487C
:1009B0000CC8284606F0B4FE694A03C20022674B01
:1009C000674903C906F0AAFF14D86648427801783F
:1009D00065480378AFF2D83005F040FB634903C99E
:1009E000CDE900015E480CC8614801688CA005F0A3
:1009F00035FB13E05B48427801785B480378AFF23F
:100A0000004005F02BFB594903C9CDE900015448CA
:100A10000CC85748016887A005F020FB04216248F4
:100A200001F067FF8949087002215F4801F061FF0A
:100A30008749087001215C4801F05BFF8549087017
:100A40008248007840B98248007828B90846007882
:100A500010B9FFF7ACFE1EE0644803787E4A7F4978
:100A60005220FFF7D3FB88B902F065F802F00BF8CB
:100A700000204FF0804188845249086002F04FF80E
:100A800002207749087001205849087057480078BB
:100A900002283FF434AF00BFDCE15C48008800F47A
:100AA0000040002852D0594890F80090002409E0F6
:100AB0005748005D02A9085502A8005D3038085566
:100AC000601CC4B24C45F3DB0020504908809DF8FF
:100AD0000800092808D19DF8090028B93E48007887
:100AE00010B9FFF764FEBAE19DF8080000282DD187
:100AF0009DF80900002829D132480068454908605E
:100B00004FF0804005F083FA434908600968414A84
:100B100012684FF6E85303FB021006F0B1FD0546DC
:100B200000223E4B06F054FC074610480CC83846DD
:100B300006F0F6FD0A4A03C20022084B084903C921
:100B400006F0ECFE03D8074842788BE0B3E09DE066
:100B50003200002034000020B800002000002440B3
:100B600058000020740000207A000020500000206F
:100B70003C000020433930393025303264252E3294
:100B800066252E32660D0A00433930393025303261
:100B90006430252E3266252E32660D0A00000000D4
:100BA00053544F500D0A000000100140000C01404A
:100BB00000140140000801402404004024080040C3
:100BC000240C004014000020100000201800002019
:100BD0001C000020680000203700002036000020A4
:100BE0003500002038000020700000203100002077
:100BF0004331303130253032640D0A00436F6E745A
:100C0000726F6C5F4241434B0D0A00009C00002054
:100C10009A180020280000202400002080842E4103
:100C2000443130313025303264252E3266252E3263
:100C3000660D0A0044313031302530326430252EC3
:100C40003266252E32660D0A0000000039000020B1
:100C50003A0000203B0000200A0000200400002091
:100C60000E0000200178F8480378AFF26C6005F0C0
:100C7000F5F9F64903C9CDE90001F5480CC8F54876
:100C80000168AFF2640005F0E9F914E0F248427837
:100C90000178ED480378AFF2986005F0DFF9EB4991
:100CA00003C9CDE90001EA480CC8EA480168AFF27F
:100CB0007C0005F0D3F90421E84801F01AFEE84968
:100CC00008700221E54801F014FEE6490870012190
:100CD000E24801F00EFEE4490870E148007840B9AE
:100CE000E048007828B90846007810B9FFF75FFDA2
:100CF000B5E0DE48006864280AD901F0D2FE002081
:100D0000DA490860DA4908800220DA490870A6E06A
:100D1000D8480378D84AD9495220FFF777FA0028F3
:100D20007DD101F0BEFE0020D549087000240CE002
:100D3000D148005DD349095D884204D1D04800788C
:100D4000401CCF490870601CC4B2042CF0DBCC48B6
:100D50000078042872D10020C9490870C44824389A
:100D600005F055F9C84908600968C04A12684FF68D
:100D7000E85303FB021006F083FC05460022C34B38
:100D800006F026FBC24A03C2C2480CC80020C24972
:100D900006F0C6FC0546BE480CC8284606F018FBFF
:100DA000AA4A03C20020B2490880B04908608146BF
:100DB00021E000240EE0B94800EB8900005DAE4957
:100DC000095D884204D1AE480078401CAC490870E7
:100DD000601CC4B2042CEEDBA9480078042803D1BF
:100DE0000020A749087009E00020A549087009F112
:100DF000010000F0FF09B9F1320FDADB00BF09F1A1
:100E0000010094490860084600680A21B0FBF1F02F
:100E10003030A34908708F4800680A2100E019E0CB
:100E2000B0FBF1F201FB120030309D494870022204
:100E30000A219B4802F0C3F807E0FFE700208B4936
:100E400008608F4908708A49088002209549087017
:100E5000884908708748007801283FF41EAE00BF1B
:100E60009148007801283FF449AD90A005F0F6F8CC
:100E7000BDE8FE832DE9FE4F4FF0000801209049A8
:100E8000087000208F49087001207A490870724864
:100E9000427801786C480378AFF69C0005F0DEF8E4
:100EA0006C48016888A005F0D9F88AA005F0D6F84A
:100EB00081E2B4E08B48008800F40040002877D03D
:100EC00088480578002409E08748005D02A9085594
:100ED00002A8005D30380855601CC4B2AC42F3DB98
:100EE0000020804908809DF80800092808D19DF855
:100EF000090028B97348007810B9FFF758FC93E04F
:100F00009DF80800002853D19DF8090000284FD112
:100F100076480068764908604FF0804005F077F821
:100F2000744908600968724A12684FF6E85303FB77
:100F3000021006F0A5FB814600226F4B06F048FA2E
:100F4000064642480CC8304606F0EAFB404A03C257
:100F50000022514B3E4903C906F0E0FC14D83E483C
:100F60004278017838480378AFF66C1005F076F8CF
:100F7000364803C8CDE9000135480CC8354801683A
:100F80005EA005F06BF813E03348427801782E48F4
:100F90000378AFF6941005F061F82C4803C8CDE94A
:100FA00000012B480CC82B48016859A005F056F8E1
:100FB00004212A4801F09DFC294908700221274894
:100FC00001F097FC274908700121244801F091FCA9
:100FD000254908702248007840B92248007828B98D
:100FE0000846007810B9FFF7E2FB1DE021480378BE
:100FF000214A22495220FFF709F980B901F09BFDEF
:1010000001F041FD00204FF080418884374908609D
:1010100001F085FD02202349087016490870154823
:10102000007801283FF446AF00BFBEE13EA005F0C6
:1010300015F82C48008800F40040002803D0294807
:101040000578002482E0D7E07A00002050000020DC
:10105000580000203C0000207400002000100140D7
:10106000390000203A0000203B0000201000002042
:10107000240400403100002006000020040000206D
:10108000320000200A0000202000002000408F4095
:10109000600000204800002000002440B80000202C
:1010A000400000200E00002036000020636F6E74A8
:1010B000726F6C206261636B20656E640D0A0000C4
:1010C00035000020370000204331313131253032E6
:1010D000640D0A00636F6E74726F6C20676F0D0A87
:1010E000000000009C0000209A180020140000203E
:1010F000280000202400002080842E41443131311A
:101100003125303264252E3266252E32660D0A00D6
:1011100044313131312530326430252E3266252E6E
:1011200032660D0A00000000726669645F32207743
:101130006F726B0D0A000000FD48005D02A90855A2
:1011400002A8005D30380855601CC4B2AC42F3DB25
:101150000020F84908809DF80800092808D19DF86A
:10116000090028B9F448007810B9FFF720FB21E105
:101170009DF80800002855D19DF80900002851D19C
:10118000EE480068EE4908604FF0804004F03FFFF1
:10119000EC4908600968EA4A12684FF6E85303FB15
:1011A000021006F06DFA06460022E74B06F010F931
:1011B0008146E6480CC8484606F0B2FAE44A03C243
:1011C0000022E44BE24903C906F0A8FB15D8E24827
:1011D00042780178E1480378AFF6DC3004F03EFF56
:1011E000DA4903C9CDE90001D9480CC8DC480168D7
:1011F000AFF2F80004F032FF14E0D74842780178EB
:10120000D6480378AFF6084004F028FFCF4803C85B
:10121000CDE90001CE480CC8D1480168AFF21010EA
:1012200004F01CFF0421CF4801F063FBCE49087095
:101230000221CC4801F05DFBCC4908700121C9486E
:1012400001F057FBCA490870C748007858B9C74829
:10125000007840B90846007828B9FFF7A8FAC5A079
:1012600004F0FCFEA6E0C948006864280AD901F031
:1012700018FC0020C6490880C44908600120C549FF
:10128000087097E0C3480378C34AC4495220FEF768
:10129000BDFF00287BD101F004FC00240BE0C04816
:1012A000005DBD49095D884203D108F1010000F0ED
:1012B000FF08601CC4B2042CF1DBB8F1040F68D144
:1012C0004FF00008B248243804F0A1FEB549086088
:1012D0000968AE4A12684FF6E85303FB021006F0A5
:1012E000CFF906460022B04B06F072F8AF4A03C2AF
:1012F000AF480CC80020974906F012FA0646AB48E2
:101300000CC8304606F064F8904A03C20020A04999
:1013100008809E49086000251BE000240DE0A548D8
:1013200000EB8500005D9E49095D884203D108F10C
:10133000010000F0FF08601CC4B2042CEFDBB8F120
:10134000040F02D14FF0000805E04FF00008681CC0
:10135000C5B2322DE1DB00BF681C81490860084638
:1013600000680A21B0FBF1F03030934908707C48E6
:1013700000680A21B0FBF1F201FB120030308E4907
:10138000487002220A218C4801F019FE07E00CE0A7
:10139000FFE700207D4908607D49088080460220E3
:1013A0008649087001207B4908707A480078022835
:1013B0003FF43CAE00BF8248007801283FF479AD8D
:1013C00080A004F04BFEBDE8FE8F10B504216548F7
:1013D00001F08FFA644908700221624801F089FA2D
:1013E0006249087001215F4801F083FA6049087082
:1013F0005D48007850B95D480078012806D108465C
:101400000078012802D1FFF735FD0CE0564800783E
:10141000012808D15548007828B955480078012896
:1014200001D1FFF74EFA10BD38B501206A490870A6
:1014300002220A21604801F02AFD5F4840783038D6
:101440005D490978303901EB810100EB41004449E5
:10145000086041484278017840480378AFF6606000
:1014600004F0FCFD5448427801785CA004F0F6FDDD
:1014700012E1FFF7AAFF2F48008800F4004000287F
:10148000F6D02C48057800240BE02948005D0DF8C3
:1014900004001DF804003038C0B20DF80400601CD0
:1014A000C4B2AC42F1DB0020224908809DF8000064
:1014B00003282CD19DF80100012828D11E4800786E
:1014C000012824D14021274803F051F84FF400713E
:1014D000454803F04CF84FF48071444803F047F856
:1014E000322002F09CFD40211E4803F03EF84FF4EC
:1014F00000713D4803F039F84FF480713B4803F028
:1015000034F8FFF7B7FC3AA004F0A8FDC4E09DF85A
:10151000000003280BD19DF8010040B9064800786F
:10152000012804D180210F4803F021F866E081E012
:101530009A1800209C000020370000201400002092
:10154000280000202400002080842E41500000202C
:101550005800002000002440740000207A00002081
:101560003C00002000100140390000203A0000201B
:101570003B0000206765742070696E20746F2073D3
:10158000746F70206E756D32000000001000002036
:1015900024040040310000200A0000200400002044
:1015A000060000202000002000408F406000002046
:1015B00048000020B8000020400000200E0000205D
:1015C00035000020636F6E74726F6C20676F20654A
:1015D0006E640D0A000000003000002043393931EC
:1015E00031256325630D0A00000C0140000801400D
:1015F000476F2066696E6973680D0A004FF4806159
:10160000FE4802F0B4FF0421FD4802F0B0FF322092
:1016100002F005FD8021FB4802F0A7FF4FF4806136
:10162000F64802F0A2FF0421F54802F09EFFFFF702
:1016300048F931E09DF8000088B99DF8010070B9C3
:10164000F14842780178F1480378F14804F006FD4A
:10165000F04842780178F0A004F000FD1CE09DF80D
:101660000000092818D19DF80100092814D1ED487F
:101670000078012810D1E44842780178E3480378E3
:10168000E34804F0EBFCE34842780178E6A004F07C
:10169000E5FC0020E7490870E648007801283FF49F
:1016A000E8AE38BD2DE9FE4F4FF000080120E249B9
:1016B00008700020DB4908700220E0490870D24819
:1016C00042780178D1480378D14804F0C7FCDC485F
:1016D0000168DCA004F0C2FCDDA004F0BFFC3AE22B
:1016E00095E0DE48008800F40040002875D0DB4813
:1016F0000578002409E0DA48005D02A9085502A82F
:10170000005D30380855601CC4B2AC42F3DB0020E9
:10171000D24908809DF80800092808D19DF80900E1
:1017200028B9C048007810B9FFF741F874E09DF877
:101730000800002851D19DF8090000284DD1C94862
:101740000068C94908604FF0804004F060FCC74958
:1017500008600968C44A12684FF6E85303FB021098
:1017600005F08EFF81460022C14B05F031FE064692
:10177000C0480CC8304605F0D3FFBF4A03C2002260
:10178000BE4BBD4903C906F0C9F813D89E4842783C
:1017900001789E4803789E4804F060FCB54803C871
:1017A000CDE90001B4480CC8A5480168B4A004F014
:1017B00055FC12E0944842780178944803789448A4
:1017C00004F04CFCAB4803C8CDE90001AA480CC8A2
:1017D0009B480168AFA004F041FC98480378B34AE5
:1017E000B3495220FEF712FD88B901F0A4F901F0C7
:1017F0004AF900204FF0804188849A49086001F03E
:101800008EF90220AB49087001208C4908708B4882
:10181000007802283FF465AF00BF96E18F4800884A
:1018200000F40040002875D08C480578002409E0B9
:101830008B48005D02A9085502A8005D30380855A4
:10184000601CC4B2AC42F3DB0020844908809DF8E0
:101850000800092808D19DF8090028B971480078C6
:1018600010B9FEF7A4FF75E19DF80800002851D1DA
:101870009DF8090000284DD17A4800687A4908602F
:101880004FF0804004F0C3FB784908600968764A4D
:1018900012684FF6E85303FB021005F0F1FE06460E
:1018A0000022734B05F094FD814672480CC84846EF
:1018B00005F036FF704A03C20022704B6E4903C91F
:1018C00006F02CF813D85048427801784F48037836
:1018D0004F4804F0C3FB674903C9CDE900016648DE
:1018E0000CC85748016866A004F0B8FB12E04648EF
:1018F0004278017845480378454804F0AFFB5D48DD
:1019000003C8CDE900015C480CC84D48016861A0DE
:1019100004F0A4FB68480068B0F57A7F0AD901F0AA
:10192000C0F80020644908606449088002204349E7
:1019300008700FE141480378614A5D495220FEF783
:1019400065FC002857D101F0ACF800240BE05C489E
:10195000005D5649095D884203D108F1010000F09D
:10196000FF08601CC4B2042CF1DBB8F1040F43D1B2
:101970004FF000085148243804F049FB51490860F1
:1019800009684D4A12684FF6E85303FB021005F050
:1019900077FE064600224C4B05F01AFD4B4A03C267
:1019A0004B480CC80020354905F0BAFE06464748AA
:1019B0000CC8304605F00CFD2E4A03C200203F49FA
:1019C00008803D49086000258DE000240DE0414875
:1019D00000EB8500005D3A49095D884203D108F1BA
:1019E000010000F0FF08601CC4B2042CEFDBB8F16A
:1019F000040F74D170E0A8E09CE070E0000C01409E
:101A00000014014000100140740000207A00002002
:101A10000006000840000020443939313125632593
:101A2000630D0A0037000020433939303125632522
:101A3000630D0A0030000020360000203100002035
:101A40003C0000204332303230253032640D0A0031
:101A50004175746F5F4241434B0D0A009C000020AA
:101A60009A180020140000202800002024000020E4
:101A700080842E41500000205800002000002440A7
:101A8000443230323025303264252E3266252E32F3
:101A9000660D0A0044323032302530326430252E53
:101AA0003266252E32660D0A000000000A00002072
:101AB000040000200E00002010000020240400403C
:101AC000060000202000002000408F406000002021
:101AD00048000020B80000204FF0000806E04FF05A
:101AE0000008681CC5B2322DFFF66FAF00BF681C3E
:101AF000FE490860084600680A21B0FBF1F030306A
:101B0000FB490870F94800680A21B0FBF1F201FBBB
:101B100012003030F649487002220A21F44801F0E0
:101B20004EFAF2480068F3490978884208D1FEF776
:101B30003EFE0FE00020F04908608046EF49088033
:101B40000220EF490870EF490870EE48007801283C
:101B50003FF464AE00BFEC48007801283FF4C0AD0C
:101B6000BDE8FE8F2DE9FE4F4FF000080120E74948
:101B700008700020E64908700120E2490870E54835
:101B800042780178E4480378E44804F067FAD748DB
:101B90000168E3A004F062FAE4A004F05FFA28E22E
:101BA00094E0E548008800F40040002875D0E24841
:101BB0000578002409E0E148005D02A9085502A863
:101BC000005D30380855601CC4B2AC42F3DB002025
:101BD000D94908809DF80800092808D19DF8090016
:101BE00028B9CB48007810B9FEF7E1FD73E09DF805
:101BF0000800002851D19DF8090000284DD1D04897
:101C00000068D04908604FF0804004F000FACE49E7
:101C100008600968CB4A12684FF6E85303FB0210CC
:101C200005F02EFD81460022C84B05F0D1FB06468B
:101C3000C7480CC8304605F073FDC64A03C20022EF
:101C4000C54BC44903C905F069FE13D8B1484278B1
:101C50000178B1480378B14804F000FABC4803C8E1
:101C6000CDE90001BB480CC8A0480168BBA004F046
:101C7000F5F912E0A74842780178A7480378A74809
:101C800004F0ECF9B24803C8CDE90001B1480CC832
:101C900096480168B6A004F0E1F99A480378BA4A78
:101CA000BA495220FEF7B2FA80B900F044FF00F0C2
:101CB000EAFE00204FF080418884A149086000F0CE
:101CC0002EFF02208E4908708E4908708D480078DA
:101CD00001283FF466AF00BF85E19748008800F413
:101CE0000040002875D094480578002409E0934806
:101CF000005D02A9085502A8005D30380855601C37
:101D0000C4B2AC42F3DB00208B4908809DF8080088
:101D1000092808D19DF8090028B97D48007810B934
:101D2000FEF745FD64E19DF80800002851D19DF8BB
:101D3000090000284DD182480068824908604FF0B0
:101D4000804004F064F98049086009687D4A12689F
:101D50004FF6E85303FB021005F092FC0646002202
:101D60007A4B05F035FB814679480CC8484605F0AA
:101D7000D7FC784A03C20022774B764903C905F0A5
:101D8000CDFD13D8634842780178634803786348EF
:101D900004F064F96E4903C9CDE900016D480CC82F
:101DA000524801686DA004F059F912E05948427890
:101DB000017859480378594804F050F9644803C839
:101DC000CDE9000163480CC84848016868A004F0E8
:101DD00045F94948006864280AD900F062FE0020ED
:101DE0004549086045490880012046490870FFE0E0
:101DF00044480378664A65495220FEF707FA0028EE
:101E000071D100F04EFE00240BE05F48005D604998
:101E1000095D884203D108F1010000F0FF08601C51
:101E2000C4B2042CF1DBB8F1040F5DD14FF000080F
:101E30003248243804F0EBF85649086009682E4A05
:101E400012684FF6E85303FB021005F019FC064632
:101E50000022514B05F0BCFA504A03C250480CC84E
:101E600000203D4905F05CFC06464C480CC8304655
:101E700005F0AEFA364A03C20020204908801E4908
:101E8000086000251BE000240DE0464800EB8500BB
:101E9000005D3D49095D884203D108F1010000F071
:101EA000FF08601CC4B2042CEFDBB8F1040F02D1B0
:101EB0004FF0000805E04FF00008681CC5B2322D55
:101EC000E1DB00BF681C09490860084600680A2178
:101ED000B0FBF1F0303006490870044800680A2170
:101EE000B0FBF1F260E07EE071E000003C00002019
:101EF0004000002042000020100000202404004088
:101F00000E000020310000203600002035000020A7
:101F100037000020740000207A000020000600082E
:101F20004332323232253032640D0A004175746F0B
:101F30005F474F0D0A0000009C0000209A18002007
:101F400014000020280000202400002080842E415E
:101F5000500000205800002000002440443232325B
:101F60003225303264252E3266252E32660D0A0067
:101F700044323232322530326430252E3266252EFC
:101F800032660D0A00000000060000200400002058
:101F90000A0000202000002000408F406000002048
:101FA00048000020B800002001FB12003030FD493D
:101FB000487002220A21FB4801F001F8FA48006843
:101FC000FA490978884208D1FEF7F1FB10E00020B9
:101FD000F74908608046F74908800220F6490870F2
:101FE0000120F6490870F548007802283FF475AEE4
:101FF00000BFF348007801283FF4D2ADBDE8FE8F62
:1020000038B50220EF49087002220A21E54800F0A5
:102010003EFFE44840783038E2490978303901EB36
:10202000810100EB4100E0490860E748427801780F
:10203000E6480378E64804F011F8DA484278017877
:10204000E4A004F00BF8E6A004F008F8E2E0FFF7E3
:10205000BCF9E948008800F400400028F6D0E648C2
:10206000057800240BE0E548005D0DF804001DF83C
:1020700004003038C0B20DF80400601CC4B2AC4299
:10208000F1DB0020DC4908809DF80000092819D107
:102090009DF80100082815D1D9480078012811D1F0
:1020A0000020C8490870C84842780178C7480378BA
:1020B000C74803F0D3FFBB4842780178D1A003F0B2
:1020C000CDFFA7E09DF8000080B99DF8010068B938
:1020D000BD4842780178BD480378BD4803F0BEFF93
:1020E000B1480168CBA003F0B9FF93E09DF8000070
:1020F00009280BD19DF80100012807D1C8A003F0E1
:10210000ADFF012000F01EFA00F021FA9DF8030057
:102110009DF8021001EB810100EB4100A34908701A
:10212000A1480068097888420BD99F4800680A28AE
:1021300007D99D4800680D2803D20A209B490870E2
:1021400010E0994800689949097888420AD9964868
:102150000068072806D9944800680A2802D2072098
:10216000924908709DF80000032829D19DF80100CC
:10217000012825D1A2480078012821D14021AA4870
:1021800002F0F5F94FF40071A84802F0F0F94FF4AD
:102190008071A74802F0EBF9322001F040FF4021A6
:1021A000A14802F0E2F94FF40071A04802F0DDF915
:1021B0004FF480719E4802F0D8F9FFF7D3FC29E074
:1021C0009DF80000032825D19DF8010010BB8C4824
:1021D000007801281ED18021934802F0C8F94FF4FD
:1021E0008061924802F0C3F90421924802F0BFF9DD
:1021F000322001F014FF80218B4802F0B6F94FF431
:1022000080618A4802F0B1F904218A4802F0ADF9F0
:10221000FFF748FA6B48007802283FF418AF86A011
:1022200003F01CFF38BD08B5002601F0BBFE4FF4DB
:10223000A06002F011FE4FF4E13001F030FF00F039
:10224000A9FA00F0CBFA00F0F8FA00F029FB00F050
:1022500063FB472142F2107000F0DCFB472142F2A1
:10226000107000F024FC41F61F4142F2107000F0A3
:1022700069FC41F61F4142F2107000F0B0FC00F022
:102280005AFC00F00EFC00F0A4FC00F0EFFC01F0A2
:1022900084F801F031FC00F0A0FDFEF788F9302051
:1022A000404908703720487002220A213D4800F05A
:1022B00086FE46E1FFF789F84F48008800F40040A9
:1022C0000028F6D04C48067800240BE04B48005D0F
:1022D0000DF804001DF804003038C0B20DF80400F9
:1022E000601CC4B2B442F1DB0020434908809DF871
:1022F0000000092806D19DF80100092802D1FFF746
:1023000093F81EE19DF80000092806D19DF8010010
:10231000082802D1FFF774FE13E19DF80000092898
:1023200006D19DF80100062802D1FDF7B8FF08E1AB
:102330009DF8000088B99DF8010070B922484278E4
:10234000017822480378224803F088FE1548427835
:10235000017840A003F082FEF3E09DF80000092818
:1023600007D19DF80100012803D100F0EBF800F03F
:10237000EEF89DF8000009289BD19DF80100052882
:1023800097D111484278017810480378104803F03B
:1023900065FE33A003F062FE0120084908700025A5
:1023A000CAE00000400000203C0000204200002065
:1023B00010000020240400400E0000203100002006
:1023C0003500002030000020740000207A0000203A
:1023D000000600084339383131256325630D0A00B2
:1023E0004175746F6D61746963616C6C792073748D
:1023F0006172740D0A0000009C0000209A180020F1
:10240000370000204339383031256325630D0A0D2C
:102410000A0000004439383131253032640D0A0099
:1024200052455345540D0A0000100140000C014074
:10243000000801400014014045786974204D6F6424
:10244000656C204175746F6D61746963616C6C7942
:102450000D0A00004430303030256325630D0A003A
:1024600043393531310D0A003F48008800F40040FF
:1024700090B33D48067800240BE03C48005D0DF821
:1024800004001DF804003038C0B20DF80400601CD0
:10249000C4B2B442F1DB0020334908809DF800004B
:1024A00009281AD19DF80100052816D100203049CD
:1024B00008703048427801782F4803782F4803F09D
:1024C000CDFD29462D48183803F0C8FDAFF2800035
:1024D00003F0C4FD002533E0FFE725480378284AD0
:1024E00028495220FDF792FE08BB22484278017825
:1024F00021480378214803F0B1FD4FF48071224850
:1025000002F035F8002407E01D48015D1B4818382B
:1025100003F0A4FD601CC4B2042CF5DBAFF2D000C4
:1025200003F09CFD681CC5B20220184908704FF4E6
:102530008071154802F019F80D480078012893D0F1
:1025400000BFB7E600F0010181F31388704710481F
:10255000006800F4E0600F490843001D0C49086062
:10256000BFF3408F00BFFEE79C0000209A180020B8
:1025700031000020740000207A00002000060008CE
:102580000600002004000020000801400E0000208A
:102590000CED00E00000FA05704700BFFEE700BF49
:1025A000FEE700BFFEE700BFFEE7704770477047D9
:1025B000704700000CB50020019000906C48006846
:1025C00040F480306A49086000BF6948006800F440
:1025D000003000900198401C0190009818B90198B3
:1025E000B0F5A06FF1D16248006800F4003010B17E
:1025F0000120009001E0002000900098012843D1C4
:102600005C48006840F010005A49086008460068BD
:1026100020F0030008600846006840F002000860EF
:102620005348406852494860084640684860084638
:10263000406840F4806048600846406820F47C10A0
:1026400048600846406840F4E81048600846006862
:1026500040F08070086000BF4548006800F00070DE
:102660000028F9D04248406820F003004049486003
:102670000846406840F00200486000BF3C4840689F
:1026800000F00C000828F9D10CBD10B5FFF792FF3F
:1026900010BD10B53648006840F0010034490860AC
:1026A0000846406834490840314948600846006897
:1026B000324908402E4908600846006820F480200E
:1026C00008600846406820F4FE0048604FF41F0090
:1026D0008860FFF7DAFF4FF000602949086010BDFD
:1026E00010B5002100200022214B5B6803F00C0193
:1026F00021B1042906D0082928D107E0214B224C1A
:10270000236027E01F4B204C236023E0184B5B68BD
:1027100003F47010164B5B6803F48032022303EB62
:10272000904022B9194B4343174C23600DE0104BE6
:102730005B6803F4003323B1144B4343124C236012
:1027400003E0104B4343104C236003E00D4B0E4C51
:10275000236000BF00BF064B5B68C3F303130C4C40
:10276000E15C094B1B68CB40074C236010BD0000A7
:1027700000100240002002400000FFF8FFFFF6FEBC
:1027800008ED00E000127A007C00002000093D0006
:102790008000002008B50121242002F0F5F84FF454
:1027A0008070ADF8000010208DF8030003208DF834
:1027B00002006946544801F02BFE4FF480715248E4
:1027C00001F0D3FE0420ADF8000069464F4801F047
:1027D0001FFE04214D4801F0C8FE08BD08B50121C7
:1027E000102002F0D1F84020ADF8000010208DF844
:1027F000030003208DF802006946454801F008FEF9
:102800004021434801F0B1FE8020ADF80000694648
:102810003F4801F0FDFD80213D4801F0A6FE4FF448
:102820008070ADF800006946394801F0F1FD4FF4C1
:102830008071374801F099FE08BD08B501210820D4
:1028400002F0A2F84FF40070ADF8000010208DF8EF
:10285000030003208DF8020069462E4801F0D8FDE0
:102860004FF400712B4801F080FE4FF48060ADF80A
:1028700000006946274801F0CBFD4FF480612548F0
:1028800001F073FE4FF40060ADF800006946214886
:1028900001F0BEFD4FF400611E4801F066FE08BD68
:1028A00008B50121102002F06FF80120ADF80000FA
:1028B00028208DF8030003208DF802006946144893
:1028C00001F0A6FD0220ADF800006946104801F0B5
:1028D0009FFD0420ADF8000069460D4801F098FD09
:1028E0004FF40070ADF800006946094801F090FD12
:1028F00008BD70B504460D462946204601F01BFE72
:102900000646304670BD000000080140001401403A
:1029100000100140000C014008B50121142002F014
:1029200033F80121374801F044FE4FF40040ADF880
:10293000000048208DF803006946334801F068FD27
:102940002020ADF8000048208DF8030069462F488C
:1029500001F05EFD0120ADF8000028208DF8030095
:102960006946294801F054FD08BD10B5044614B16C
:102970000120274908702648007868B320212348A1
:1029800001F0D9FD58B14FF400411F4801F0D3FDCB
:1029900028B101211C4801F0CEFD01281CD10A20DC
:1029A00001F03DFB00201A4908702021174801F072
:1029B000C2FD08B9012010BD4FF40041124801F0DA
:1029C000BAFD08B90220F6E701210F4801F0B3FD76
:1029D000012815D10320EEE720210C4801F0ABFDC2
:1029E00001280DD1C103084801F0A5FD012807D138
:1029F0000121054801F09FFD10B90120044908702C
:102A00000020D8E70002300000080140001001401B
:102A1000900000207FB505460C460121022001F000
:102A2000C0FFADF80850ADF804400020ADF80A0032
:102A3000ADF8060001A9904802F0D6FC012211462B
:102A40008D4803F048F81D208DF8000001208DF816
:102A5000010000208DF8020001208DF80300684677
:102A600002F0FFF97FBD10B50121834803F0E1FAC0
:102A700040B10121804803F0EDFA80480068401C15
:102A80007E49086010BD10B54FF6E8507A492C31E8
:102A900008804720091F08800121774803F000F8CB
:102AA00010BD10B50021744802F0FAFF10BD7FB5CB
:102AB00005460C460121084601F073FFADF80850A9
:102AC000ADF804400020ADF80A00ADF8060001A9F9
:102AD0004FF0804002F088FC01221146900702F07E
:102AE000FAFF1C208DF8000001208DF801008DF800
:102AF00002008DF80300684602F0B3F97FBD10B5FF
:102B00000121880703F095FA40B10121880703F0FD
:102B1000A1FA5B480068401C5949086010BD10B517
:102B20004FF6E850C10688854720088501218807AF
:102B300002F0B6FF10BD10B500214FF0804002F04A
:102B4000AFFF10BD7FB505460C460121042001F002
:102B500028FFADF80850ADF804400020ADF80A0099
:102B6000ADF8060001A9474802F03EFC01221146DB
:102B7000444802F0B0FF1E208DF8000001208DF8BF
:102B8000010002208DF8020001208DF80300684644
:102B900002F067F97FBD10B501213A4803F049FA08
:102BA00040B10121374803F055FA37480068401C0E
:102BB0003549086010BD10B54FF6E85031492C3149
:102BC00008804720091F088001212E4802F068FF75
:102BD00010BD10B500212B4802F062FF10BD7FB57B
:102BE00005460C460121082001F0DBFEADF8085037
:102BF000ADF804400020ADF80A00ADF8060001A9C8
:102C0000224802F0F1FB01221146204802F063FF46
:102C100032208DF8000001208DF8010003208DF88E
:102C2000020001208DF80300684602F01AF97FBD0A
:102C300010B50121154803F0FCF940B101211348FA
:102C400003F008FA12480068401C1149086010BDE2
:102C500010B54FF6E8500D492C3108804720091F68
:102C600008800121094802F01BFF10BD10B50021AA
:102C7000064802F015FF10BD0004004010000020BF
:102C8000140000200008004018000020000C004044
:102C90001C00002070B50546002405E0601CC4B28D
:102CA000C82C01DD002070BD0221FA4802F091FA23
:102CB0000028F3D02946F74802F038FA002405E04E
:102CC000601CC4B2C82C01DD0020ECE70121F148F2
:102CD00002F07FFA0028F3D0EE4802F029FAC0B2E1
:102CE000E1E708B501210C2001F04EFE0121C803E7
:102CF00001F057FE3820ADF8000018208DF80300D1
:102D000003208DF802006946E34801F081FB4FF48F
:102D10000040ADF8000010208DF8030003208DF86E
:102D200002006946DD4801F073FB0121084601F00D
:102D30002BFE0121DA4801F03CFC3821D64801F095
:102D400014FC0020D74908804FF48270488000208E
:102D500088800220C88001200881400248813820F4
:102D600088810020C88107200882CA4802F008F93B
:102D70000121C84802F0A9F9FF20FFF78BFF08BD29
:102D800010B50446C74884810146C24802F0F8F8ED
:102D90000121C04802F099F910BD10B500240020AF
:102DA000C14908609020FFF775FF0020FFF772FF10
:102DB0000020FFF76FFF0020FFF76CFFFF20FFF7F9
:102DC00069FF44EA0024FF20FFF764FF0443012069
:102DD000B649C1F89C01204610BD08B50121082064
:102DE00001F0D2FDC020ADF8000010208DF80300E6
:102DF00003208DF802006946A74801F009FBC021B5
:102E0000A54801F0B2FBFFF76CFF0820FFF7B8FF01
:102E1000FFF7C3FFA649088008BD10B500240020B5
:102E2000A14908600520FFF735FFFF20FFF732FFBB
:102E3000044601209D49C1F89C01204610BD10B5F3
:102E400004460020984908600120FFF723FF204630
:102E5000FFF720FF01209549C1F89C0110BD10B576
:102E60000020914908600620FFF714FF01208F49D8
:102E7000C1F89C0110BD10B500208B4908600420EA
:102E8000FFF708FF01208949C1F89C0110BD2DE919
:102E9000F04106460C46174600208349086003208F
:102EA000FFF7F8FEC4F30740FFF7F4FEC4F3072072
:102EB000FFF7F0FEE0B2FFF7EDFE002505E0FF2092
:102EC000FFF7E8FE7055681C85B2BD42F7DB0120B4
:102ED00075490860BDE8F08110B500BFFFF79DFFA0
:102EE00000F001000028F9D110BD2DE9F04106469F
:102EF0000C461746FFF7B3FF00206B49086002201D
:102F0000FFF7C8FEC4F30740FFF7C4FEC4F3072071
:102F1000FFF7C0FEE0B2FFF7BDFE002504E0705DE4
:102F2000FFF7B8FE681C85B2BD42F8DB01205E49A0
:102F30000860FFF7D1FFBDE8F0812DE9F0410746B9
:102F40000E461446F0B2C0F58075AC4200DC254652
:102F500012E02A4631463846FFF7C7FFAC4200D19F
:102F60000BE02F442E44601B84B2B4F5807F02DD59
:102F70004FF4807500E02546EBE700BFBDE8F08127
:102F800010B504462403FFF76AFFFFF7A5FF0020F2
:102F9000454908602020FFF77DFEC4F30740FFF796
:102FA00079FEC4F30720FFF775FEE0B2FFF772FE6B
:102FB00001203E49C1F89C01FFF78EFF10BD2DE9AD
:102FC000F04781460F4616464FEA1738C7F30B0AFB
:102FD000CAF58054A64200DC344644E04FEA08318A
:102FE0004FF480523348FFF752FF002508E00AEB08
:102FF00005003049085CFF2800D003E0681C85B25A
:10300000A542F4DB00BFA54216DA4046FFF7B8FF41
:10301000002507E019F8050005EB0A01254A505480
:10302000681C85B2A542F5DB4FEA08314FF48052A7
:103030002048FFF782FF04E0224639464846FFF762
:103040007CFFA64200D10FE008F101084FF0000A12
:10305000A1442744301B86B2B6F5805F02DD4FF4F1
:10306000805400E03446B9E700BFBDE8F08710B5F2
:10307000FFF7F5FEFFF730FF00200B490860C7207F
:10308000FFF708FE01200949C1F89C01FFF724FF62
:1030900010BD0000003C0040000C01400008014051
:1030A00000023000880800209C81214200802142DB
:1030B000920000209A08002010B500200D490860F9
:1030C000B920FFF7E7FD01200B49C1F89C0103205F
:1030D00000F081FF10BD10B5002006490860AB204C
:1030E000FFF7D8FD01200449C1F89C01032000F03E
:1030F00072FF10BD9C8121420080214210B5044620
:1031000000BF0221F84802F064F80028F9D02146F7
:10311000F54802F00BF800BF0121F34802F059F81E
:103120000028F9D0F04802F003F8C0B210BD70B525
:1031300004460D467E2000EA44061021EB4801F0CB
:1031400016FA3046FFF7DAFF2846FFF7D7FF1021BF
:10315000E64801F00AFA70BD70B504467E2000EA28
:10316000440040F080051021E04801F000FA2846B4
:10317000FFF7C4FF0020FFF7C1FF06461021DB4820
:1031800001F0F3F9304670BD70B505460C4628468F
:10319000FFF7E2FF064626EA04012846FFF7C7FFCD
:1031A00070BD10B503211420FFF7EEFF10BD70B500
:1031B00005460C462846FFF7CFFF064646EA0401BF
:1031C0002846FFF7B4FF70BD10B51420FFF7C4FF09
:1031D000044604F0030018B903211420FFF7E7FFA9
:1031E00010BD10B50446412C24D108210846FFF734
:1031F000CBFF3D211120FFF79AFF86211720FFF713
:1032000096FF7F212620FFF792FF1E212D20FFF73A
:103210008EFF00212C20FFF78AFF8D212A20FFF747
:1032200086FF3E212B20FFF782FF022000F0D3FE15
:10323000FFF7CAFF10BD10B54FF40061AB4801F0B5
:1032400094F9012000F0C7FE4FF40061A74801F097
:103250008EF9012000F0BFFE4FF40061A34801F099
:1032600084F9012000F0B7FE0F210120FFF75FFF76
:1032700000BF0120FFF770FF00F010000028F8D118
:10328000012000F0A8FE3D211120FFF750FF1E2174
:103290002D20FFF74CFF00212C20FFF748FF8D2148
:1032A0002A20FFF744FF3E212B20FFF740FF40215B
:1032B0001520FFF73CFF10BD00B587B0012141F29A
:1032C000040001F061FB1020ADF804008DF8070048
:1032D00003208DF8060001A9844801F099F8202008
:1032E000ADF8040018208DF8070003208DF80600C3
:1032F00001A97E4801F08CF84020ADF804001820A8
:103300008DF8070003208DF8060001A9774801F029
:103310007FF88020ADF8040018208DF80700032006
:103320008DF8060001A9714801F072F84FF40060B1
:10333000ADF8040010208DF8070003208DF806007A
:1033400001A96A4801F064F81021684801F00DF9FC
:103350000020ADF808004FF48270ADF80A0000209C
:10336000ADF80C00ADF80E00ADF810004FF4007091
:10337000ADF812002820ADF814000020ADF81600BA
:103380000720ADF8180002A9574801F0F9FD012106
:10339000554801F09AFE07B000BD10B50120544910
:1033A0000870FFF789FF4FF40061504801F0DDF825
:1033B000FFF741FFFFF7F5FE022000F00CFEFFF7DC
:1033C00003FF4120FFF70DFFFFF7EBFE10BD2DE9D6
:1033D000FE4F0646884691469A46DDF830B00220F8
:1033E00002900020019000900C2E06D00E2E09D1E4
:1033F000122001901020009005E0772001903020ED
:10340000009000E000BF00BF019840F08001022062
:10341000FFF78DFE80210420FFF7B6FE002101207A
:10342000FFF785FE80210A20FFF7C1FE002505E099
:1034300018F805100920FFF77AFE6D1C4D45F7D3EB
:1034400031460120FFF773FE0C2E03D180210D20A1
:10345000FFF7ADFE4FF47A7500BF0420FFF77CFE46
:1034600004466D1E35B104F0010018B900982040E3
:103470000028F2D080210D20FFF786FE95B30620AC
:10348000FFF76AFE00F01B0068BB00200290019865
:10349000204000F0010008B1012002900C2E2BD139
:1034A0000A20FFF759FE04460C20FFF755FE00F0F6
:1034B00007072FB1601E07EBC000CBF8000002E049
:1034C000E000CBF8000004B90124122C00DD122426
:1034D000002505E00920FFF73FFE0AF805006D1CF6
:1034E000A542F7D308E005E00030014000080140A4
:1034F000310000200220029080210C20FFF757FEAF
:1035000000210120FFF713FE0298BDE8FE8F70B581
:1035100088B005460C4608210846FFF735FE07210E
:103520000D20FFF704FE03211420FFF740FE8DF865
:103530000C5002A803AB012203A900900C20FFF756
:1035400046FF06464EB90298102806D19DF80C0099
:1035500020709DF80D00607000E00226304608B033
:1035600070BDF0B587B00546002708210846FFF773
:103570000BFE00210D20FFF7DAFD80210E20FFF762
:1035800003FE93208DF8080020208DF8090001A883
:1035900002AB022202A900900C20FFF718FF06469A
:1035A00086B9002407E002A8005D285502A8005D46
:1035B0004740601CC4B2042CF5DB02A8005DB84291
:1035C00000D0022680210E20FFF7F1FD304607B023
:1035D000F0BD2DE9F0410746884615460421052037
:1035E000FFF7D2FD00210120FFF7A1FD80210A2075
:1035F000FFF7DDFD002405E0395D0920FFF797FDA9
:10360000601CC4B24445F7DB03210120FFF78FFDA6
:10361000FF2400BF0520FFF79FFD0646601EC4B2D1
:103620001CB106F004000028F4D02220FFF794FD1E
:1036300028702120FFF790FD6870BDE8F08170B51B
:1036400088B0054693208DF80C0070208DF80D0091
:1036500000208DF8120000240BE0295D03AAA01CB5
:1036600011549DF81200295D48408DF81200601C2D
:10367000C4B2042CF1DB0DF11302072103A8FFF7FC
:10368000A8FF08210846FFF77FFD02A803AB092227
:1036900003A900900C20FFF79AFE064626B902986F
:1036A000182801D1002600E00226304608B070BD7F
:1036B0002DE9F04387B006460F46904699468DF8AF
:1036C00008608DF80970002406E018F8041002AABA
:1036D000A01C1154601CC4B2062CF6DB002407E0C9
:1036E00019F8041002AA04F108001154601CC4B2B5
:1036F000062CF5DB01A802AB0C2202A900900E20DB
:10370000FFF765FE05462DB90820FFF725FD00F0FF
:10371000080000B90225284607B0BDE8F083F0B5DF
:1037200087B006460F46A0208DF808008DF8096086
:103730000DF10A02022102A8FFF74BFF01A802AB1C
:10374000042202A900900C20FFF741FE054645B96E
:103750000198042805D19DF8080000F00F000A2800
:1037600000D0022535BB1022394602A802F0AAFD7E
:10377000002404E0385D02A90855601CC4B2102C76
:10378000F8DB06AA102102A8FFF723FF01A802AB6D
:10379000122202A900900C20FFF719FE054645B938
:1037A0000198042805D19DF8080000F00F000A28B0
:1037B00000D00225284607B0F0BDF0B587B0054619
:1037C0000E4630208DF808008DF809500DF10A02E0
:1037D000022102A8FFF7FDFE01A802AB042202A904
:1037E00000900C20FFF7F3FD074667B90198902879
:1037F00009D1002404E002A8005D3055601CC4B269
:10380000102CF8DB00E00227384607B0F0BD00B509
:1038100087B050208DF8080000208DF809000DF1C8
:103820000A02022102A8FFF7D4FE01A802AB04227B
:1038300002A900900C20FFF7CAFD002007B000BDD0
:1038400010B5044600BF0221FA4801F0C2FC00286E
:10385000F9D02146F74801F069FC00BF0121F54885
:1038600001F0B7FC0028F9D0F24801F061FCC0B2C9
:1038700010BD70B504460D467E2000EA44064FF4A4
:103880008051ED4800F073FE3046FFF7D9FF28461F
:10389000FFF7D6FF4FF48051E74800F066FE70BD99
:1038A00070B504467E2000EA440040F080054FF4E5
:1038B0008051E14800F05BFE2846FFF7C1FF002081
:1038C000FFF7BEFF06464FF48051DB4800F04DFE87
:1038D000304670BD70B505460C462846FFF7E0FF40
:1038E000064626EA04012846FFF7C3FF70BD10B55F
:1038F00003211420FFF7EEFF10BD70B505460C46FE
:103900002846FFF7CDFF064646EA04012846FFF7A2
:10391000B0FF70BD10B51420FFF7C2FF044604F0DD
:10392000030018B903211420FFF7E7FF10BD10B5FD
:103930000446412C24D108210846FFF7CBFF3D2146
:103940001120FFF796FF86211720FFF792FF7F21B6
:103950002620FFF78EFF1E212D20FFF78AFF002172
:103960002C20FFF786FF8D212A20FFF782FF3E21C2
:103970002B20FFF77EFF022000F02DFBFFF7CAFF90
:1039800010BD10B54FF48051AC4800F0EEFD0120A1
:1039900000F021FB4FF48051A84800F0E8FD012021
:1039A00000F019FB4FF48051A44800F0DEFD012027
:1039B00000F011FB0F210120FFF75BFF00BF01208A
:1039C000FFF76EFF00F010000028F8D1012000F092
:1039D00002FB3D211120FFF74CFF1E212D20FFF798
:1039E00048FF00212C20FFF744FF8D212A20FFF7FC
:1039F00040FF3E212B20FFF73CFF40211520FFF721
:103A000038FF10BD00B587B001210C2000F0BCFFCD
:103A10000121880300F0C5FF4FF48050ADF8040089
:103A200010208DF8070003208DF8060001A98248B8
:103A300000F0EEFC4FF40050ADF8040018208DF8B3
:103A4000070003208DF8060001A97B4800F0E0FC88
:103A50004FF48040ADF8040018208DF807000320D3
:103A60008DF8060001A9744800F0D2FC4FF4004024
:103A7000ADF8040018208DF8070003208DF806002B
:103A800001A96D4800F0C4FC4FF48050ADF804006B
:103A900010208DF8070003208DF8060001A9674863
:103AA00000F0B6FC4FF48051634800F05EFD00204A
:103AB000ADF808004FF48270ADF80A000020ADF8B0
:103AC0000C00ADF80E00ADF810004FF40070ADF82A
:103AD00012002820ADF814000020ADF816000720D1
:103AE000ADF8180002A9534801F04AFA01215148E3
:103AF00001F0EBFA07B000BD10B502205049087084
:103B0000FFF780FF4FF480514C4800F02EFDFFF787
:103B100038FFFFF7ECFE022000F05DFAFFF7FAFE37
:103B20004120FFF704FFFFF7E2FE10BD2DE9FE4F35
:103B30000646884691469A46DDF830B0022002904B
:103B40000020019000900C2E06D00E2E09D11220DC
:103B500001901020009005E0772001903020009027
:103B600000E000BF00BF019840F080010220FFF795
:103B700080FE80210420FFF7ADFE00210120FFF729
:103B800078FE80210A20FFF7B8FE002505E018F82E
:103B900005100920FFF76DFE6D1C4D45F7D331462A
:103BA0000120FFF766FE0C2E03D180210D20FFF7C8
:103BB000A4FE4FF47A7500BF0420FFF771FE04469F
:103BC0006D1E35B104F0010018B90098204000289E
:103BD000F2D080210D20FFF77DFE55B30620FFF7C0
:103BE0005FFE00F01B0068BB00200290019820409F
:103BF00000F0010008B1012002900C2E2ED10A2005
:103C0000FFF74EFE04460C20FFF74AFE00F00707C0
:103C10002FB1601E07EBC000CBF8000002E0E0000F
:103C2000CBF8000004B90124122C00DD1224002579
:103C30000FE013E000380040000C01400008014094
:103C40003100002008E00920FFF72AFE0AF80500ED
:103C50006D1CA542F7D301E00220029080210C20C8
:103C6000FFF74BFE00210120FFF703FE0298BDE89D
:103C7000FE8F70B588B005460C4608210846FFF750
:103C800029FE07210D20FFF7F4FD03211420FFF783
:103C900034FE8DF80C5002A803AB012203A900905A
:103CA0000C20FFF743FF06464EB90298102806D1B4
:103CB0009DF80C0020709DF80D00607000E0022659
:103CC000304608B070BDF0B587B005460027082122
:103CD0000846FFF7FFFD00210D20FFF7CAFD8021F8
:103CE0000E20FFF7F7FD93208DF8080020208DF8B7
:103CF000090001A802AB022202A900900C20FFF7E4
:103D000015FF064686B9002407E002A8005D285585
:103D100002A8005D4740601CC4B2042CF5DB02A879
:103D2000005DB84200D0022680210E20FFF7E5FD9D
:103D3000304607B0F0BD2DE9F041074688461546EC
:103D400004210520FFF7C6FD00210120FFF791FDAA
:103D500080210A20FFF7D1FD002405E0395D09200C
:103D6000FFF787FD601CC4B24445F7DB0321012047
:103D7000FFF77FFDFF2400BF0520FFF791FD0646FA
:103D8000601EC4B21CB106F004000028F4D022204A
:103D9000FFF786FD28702120FFF782FD6870BDE8DF
:103DA000F08170B588B0054693208DF80C00702026
:103DB0008DF80D0000208DF8120000240BE0295D25
:103DC00003AAA01C11549DF81200295D48408DF8EB
:103DD0001200601CC4B2042CF1DB0DF113020721A8
:103DE00003A8FFF7A8FF08210846FFF773FD02A804
:103DF00003AB092203A900900C20FFF797FE0646AB
:103E000026B90298182801D1002600E00226304683
:103E100008B070BD2DE9F04387B006460F469046C6
:103E200099468DF808608DF80970002406E018F8AE
:103E3000041002AAA01C1154601CC4B2062CF6DBAC
:103E4000002407E019F8041002AA04F10800115434
:103E5000601CC4B2062CF5DB01A802AB0C2202A93F
:103E600000900E20FFF762FE05462DB90820FFF7EF
:103E700017FD00F0080000B90225284607B0BDE88C
:103E8000F083F0B587B006460F46A0208DF80800F5
:103E90008DF809600DF10A02022102A8FFF74BFF1D
:103EA00001A802AB042202A900900C20FFF73EFEFD
:103EB000054645B90198042805D19DF8080000F091
:103EC0000F000A2800D0022535BB1022394602A86F
:103ED00002F0F8F9002404E0385D02A90855601CDE
:103EE000C4B2102CF8DB06AA102102A8FFF723FFAA
:103EF00001A802AB122202A900900C20FFF716FEC7
:103F0000054645B90198042805D19DF8080000F040
:103F10000F000A2800D00225284607B0F0BDF0B5F2
:103F200087B005460E4630208DF808008DF8095000
:103F30000DF10A02022102A8FFF7FDFE01A802AB63
:103F4000042202A900900C20FFF7F0FD074667B994
:103F50000198902809D1002404E002A8005D3055A2
:103F6000601CC4B2102CF8DB00E00227384607B012
:103F7000F0BD00B587B050208DF8080000208DF806
:103F800009000DF10A02022102A8FFF7D4FE01A8E0
:103F900002AB042202A900900C20FFF7C7FD00200D
:103FA00007B000BD10B56FF0040000F0A4FF2E486C
:103FB00000682E49B0FBF1F02D49087008460078E2
:103FC00000EB4001C1EBC0104FF6FF7101EAC000E9
:103FD0002849088010BD0146254A12784A434FF00F
:103FE000E0235A6100229A611A46126942F00102E6
:103FF0001A6100BF4FF0E022106900F001021AB10F
:1040000000F48032002AF5D04FF0E022126922F04D
:1040100001024FF0E0231A6100229A6170470146C5
:10402000144A12884A434FF0E0235A6100229A61F1
:104030001A46126942F001021A6100BF4FF0E022F5
:10404000106900F001021AB100F48032002AF5D0A4
:104050004FF0E022126922F001024FF0E0231A61D2
:1040600000229A61704700007C00002000127A0054
:104070009400002096000020014600BF704770B5F4
:1040800004460D46E1B2994800F01EFE00BF8021B3
:10409000964800F087FE0028F9D0204670BD10B584
:1040A00086B00446012144F2040000F06DFC0121B9
:1040B000480400F076FC4FF40070ADF814000320C3
:1040C0008DF8160018208DF8170005A9884800F013
:1040D0009FF94FF48060ADF8140004208DF81700AC
:1040E00005A9834800F094F90420ADF814000320DA
:1040F0008DF8160018208DF8170005A97C4800F0EF
:1041000087F90820ADF8140004208DF8170005A9E0
:10411000774800F07DF925208DF8000002208DF809
:10412000010003208DF8020001208DF8030068468D
:1041300000F097FE26208DF8000003208DF8010086
:104140008DF8020001208DF80300684600F089FE1A
:1041500001940020ADF80800ADF80A00ADF80C009D
:10416000ADF810000C20ADF80E0001A95F4800F07A
:10417000B2FC01940020ADF80800ADF80A00ADF8DB
:104180000C00ADF810000C20ADF80E0001A9594844
:1041900000F0A1FC012240F22551544800F033FD0B
:1041A000002240F22551534800F02DFD01214F48D7
:1041B00000F01DFD00214F4800F019FD06B010BDB4
:1041C00070B504460D462946204600F07DFD00BF2F
:1041D0008021204600F0E6FD0028F9D070BD70B5C2
:1041E00006460C46002500BF615D3046FFF7E8FF3C
:1041F0006D1C605D0028F7D100BF4021304600F003
:10420000D1FD0028F9D070BD10B540F225513748D6
:1042100000F0DEFD002860D0344800F059FDC4B243
:1042200035480078F0B9354835490978405CA042F6
:1042300005D133480078401C3149087048E03048C7
:10424000007802280AD12F480078844206D1012044
:104250002949087000202A49087039E000202849BF
:10426000087035E02848008800F4004080BB2648EC
:10427000008800F4804078B10A2C03D00020224945
:10428000088005E02048008840F400401E4908806E
:104290000020194908701BE00D2C06D11A4800882F
:1042A00040F480401849088012E017480088C0F3A5
:1042B0000D0016490C5414480088401C124908800F
:1042C00008460088C72803DD002008800A490870D6
:1042D00040F22551054800F0A5FD10BD10B540F293
:1042E0002551044800F074FD10BD00000038014065
:1042F00000080140004400409F000020740000209E
:104300009E0000207A0000209C0000209A180020C7
:104310000948804709480047FEE7FEE7FEE7FEE759
:10432000FEE7FEE7FEE7FEE7FEE7FEE70448054995
:10433000054A064B7047000093260008310100082B
:10434000C8190020C81F0020C81B0020C81B00205F
:1043500010B50446CC48844208D10121042000F065
:104360002DFB0021042000F029FB46E0C7488442D1
:1043700008D10121082000F021FB0021082000F0D5
:104380001DFB3AE0C248844208D10121102000F010
:1043900015FB0021102000F011FB2EE0BD488442E7
:1043A00008D10121202000F009FB0021202000F08D
:1043B00005FB22E0B848844208D10121402000F0EA
:1043C000FDFA0021402000F0F9FA16E0B3488442DB
:1043D00008D10121802000F0F1FA0021802000F0B6
:1043E000EDFA0AE0AE48844207D10121801500F0C1
:1043F000E5FA0021A01500F0E1FA10BD10B5012189
:10440000084600F0DBFA0021012000F0D7FA10BDC9
:104410002DE9F0410246002500260020002300245B
:10442000002791F803C00CF00F0591F803C00CF0C1
:10443000100CBCF1000F03D091F802C04CEA050546
:1044400091F800C0BCF1000F31D0146800202BE0BF
:104450004FF0010C0CFA00F3B1F800C00CEA0306AF
:104460009E4220D183004FF00F0C0CFA03F7BC439F
:1044700005FA03FC4CEA040491F803C0BCF1280FD0
:1044800006D14FF0010C0CFA00FCC2F814C00AE08F
:1044900091F803C0BCF1480F05D14FF0010C0CFAA4
:1044A00000FCC2F810C0401C0828D1D31460B1F839
:1044B00000C0BCF1FF0F34DD546800202EE000F195
:1044C000080C4FF0010808FA0CF3B1F800C00CEA30
:1044D00003069E4221D183004FF00F0C0CFA03F724
:1044E000BC4305FA03FC4CEA040491F803C0BCF198
:1044F000280F05D100F1080C08FA0CF8C2F8148056
:1045000091F803C0BCF1480F07D100F1080C4FF03F
:10451000010808FA0CF8C2F81080401C0828CED315
:104520005460BDE8F0814FF6FF7101800221817077
:104530000421C17070470246002093680B400BB104
:10454000012000E0002070470146886880B2704773
:1045500002460020D3680B400BB1012000E0002090
:1045600070470146C86880B2704701617047416179
:1045700070470AB1016100E041617047C160704756
:104580004FF480320A43826181618261826982696B
:10459000704702460020434B18684FF6807318405E
:1045A00040EA021008433F4B186070473E49C8611B
:1045B0007047F0B50A46002300240021002500F0D2
:1045C0000046B6F1004F02D1364EF16901E0354E9A
:1045D0007168C0F3034583B200F44016B6F5401F7E
:1045E00008D121F070612F4E766826F070662D4F4D
:1045F0007E6012E000F48016B6F5801F06D1032617
:1046000006FA05F4A14341F0706106E0460D36015B
:1046100003FA06F6B14341F0706122B1460D36014E
:1046200003FA06F6314300F00046B6F1004F02D11E
:104630001C4EF16101E01B4E7160F0BD30B50022EF
:104640008B071C0F0F2303FA04F2164B08338C1050
:1046500053F824309343134C08348D1044F825301C
:1046600023468C1053F824308C07240F00FA04F4EE
:1046700023430C4C08348D1044F8253030BD0A49D2
:10468000DC3108607047000000080140000C014068
:10469000001001400014014000180140001C0140BE
:1046A000002001400000014000002042DF48006877
:1046B00040F00100DD49086008464068DC490840D8
:1046C000DA49486008460068DA490840D749086076
:1046D0000846006820F4802008600846406820F4FE
:1046E000FE0048604FF41F0088607047CF4909689A
:1046F00021F48031CD4A11601146096821F48021EE
:104700001160B0F5803F03D0B0F5802F0ED106E0E8
:10471000C649096841F48031C44A116007E0C349C1
:10472000096841F4A021C14A116000E000BF00BF48
:10473000704710B501460022002300204A11012ACB
:1047400002D1BA4C236806E0022A02D1B74C236A90
:1047500001E0B64C636A01F01F02012494401C4042
:104760000CB1012000E0002010BD38B50020009001
:104770000024002500BF3120FFF7DBFF054600982D
:10478000401C00900098B0F5A06F01D0002DF2D031
:104790003120FFF7CEFF08B1012400E000242046BD
:1047A00038BD01460020A14A106820F0F80040EA18
:1047B000C10010607047A0490860704702460020A1
:1047C0009A4B586820F47C1042EA01031843974B37
:1047D0005860704798490866704701460020934A20
:1047E000506820F003000843506070478F484068CD
:1047F00000F00C007047014600208C4A506820F001
:10480000F00008435060704701460020874A506816
:1048100020F4E06008435060704701460020834A5E
:10482000506820F4605040EAC1005060704729B1E0
:104830007E4A527A02437D4B5A7204E07B4A527A96
:1048400082437A4B5A7270477B49D831086070476F
:1048500001460020754A506820F4404008435060EB
:1048600070470021714A20321170704A82F820107E
:10487000012802D004280AD104E001216B4A203229
:10488000117005E00521694A2032117000E000BF77
:1048900000BF70476949086070476449096A01436D
:1048A000624A11627047654944390860704730B503
:1048B00000210022002400235C4D6D6805F00C01EE
:1048C00021B1042905D0082923D105E05C4D0560FC
:1048D00022E05B4D05601FE0544D6D6805F47012D9
:1048E000524D6D6805F48034022505EB92421CB9E7
:1048F000544D554305600BE04C4D6D6805F4003593
:104900001DB1504D5543056002E04D4D55430560C6
:1049100002E04B4D056000BF00BF444D6D6805F0DF
:10492000F0010909484D6B5C0568DD4045603F4D6D
:104930006D6805F4E061090A434D6B5C4568DD4034
:1049400085603A4D6D6805F46051C90A3E4D6B5C57
:104950004568DD40C560354D6D6805F44041890B03
:104960003A4D6B5CC568B5FBF3F5056130BD29B107
:104970002E4A526902432D4B5A6104E02B4A526978
:1049800082432A4B5A61704729B1284A92690243EF
:10499000264B9A6104E0254A92698243234B9A612F
:1049A000704729B1214AD2690243204BDA6104E001
:1049B0001E4AD26982431D4BDA61704729B11B4AF6
:1049C000D2680243194BDA6004E0184AD268824385
:1049D000164BDA60704729B1144A12690243134B2F
:1049E0001A6104E0114A12698243104B1A61704740
:1049F00012494039086070470F49C86470470B4935
:104A0000C87170470948406A40F0807007494862A1
:104A1000704701460020054A92680A400AB1012009
:104A200000E0002070470149887270470010024082
:104A30000000FFF8FFFFF6FE000042428004424201
:104A400000127A0000093D00A0000020B000002004
:104A500010B50446FB48844209D101218803FFF7C1
:104A6000ADFF00214FF48040FFF7A8FF32E0F64889
:104A7000844209D101214804FFF7ADFF00214FF422
:104A80000030FFF7A8FF25E0F048844209D101215A
:104A90008804FFF7A0FF00214FF48020FFF79BFF61
:104AA00018E0EB48844209D10121C804FFF793FFC5
:104AB00000214FF40020FFF78EFF0BE0E548844211
:104AC00008D101210805FFF786FF00214FF480106F
:104AD000FFF781FF10BD2DE9F04786B005460E4671
:104AE0000024A24600BFA1460027B08900B100BF44
:104AF0002F462C8A4CF6FF700440F08804432C8229
:104B0000AC894EF6F3100440B088318908437189AE
:104B100008430443AC81AC8A4FF6FF400440B0899F
:104B20000443AC8201A8FFF7C2FEC648874202D107
:104B3000DDF810A001E0DDF80CA0A88900F4004029
:104B400040B10AEBCA0000EB0A1031684900B0FB23
:104B5000F1F807E00AEBCA0000EB0A10316889009F
:104B6000B0FBF1F86420B8FBF0F0040120096421E7
:104B700001FB1089A88900F4004040B1322000EB0D
:104B8000C900B0FBF1F000F00700044308E0322058
:104B900000EB09106421B0FBF1F000F00F000443BA
:104BA0002C8106B0BDE8F0874FF41651016000215A
:104BB0008180C18001810C21418100218181704768
:104BC00010B502460020108A4FF2FF0318400B88F0
:104BD0004C8823438C882343CC882343184310827A
:104BE00010BD0021018041808180C180704721B1CA
:104BF000828942F40052828104E082894DF6FF737B
:104C00001A4082817047F0B5034600240026002533
:104C1000002040F66A17B94200D100BF1846C1F320
:104C2000421401F01F06012707FA06F5012C01D1F5
:104C30000C3004E0022C01D1103000E014301AB125
:104C400007682F43076002E00768AF430760F0BDC5
:104C50001AB1838A0B43838202E0838A8B43838267
:104C60007047028A4FF6F0731A400282028A0A43A2
:104C70000282704782894FF2FF731A4082818289D3
:104C80000A438281704721B1828942F00202828107
:104C900004E082894FF6FD731A4082817047028AD0
:104CA0004FF6DF731A400282028A0A43028270477B
:104CB00021B1028A42F48042028204E0028A4BF669
:104CC000FF731A4002827047C1F308028280704766
:104CD00001468888C0F308007047818941F00101CE
:104CE00081817047028BD2B20283028B42EA012299
:104CF00002837047028B02F47F420283028B0A43D5
:104D00000283704721B1828A42F02002828204E04D
:104D1000828A4FF6DF731A408282704721B1828AFD
:104D200042F01002828204E0828A4FF6EF731A404A
:104D30008282704721B1828A42F00802828204E0B6
:104D4000828A4FF6F7731A408282704721B18289B6
:104D500042F40042828103E08289C2F30E02828122
:104D6000704721B1828A42F40062828204E0828A22
:104D70004FF2FF731A4082827047828A4FF6FB73AC
:104D80001A408282828A0A438282704721B1828AD3
:104D900042F00202828204E0828A4FF6FD731A40DA
:104DA0008282704702460020B1F5007F00D100BF2B
:104DB00013880B400BB1012000E00020704701F484
:104DC0000072B2F5007F00D100BFCA430280704775
:104DD00070B50246002400230025002040F66A1624
:104DE000B14200D100BFC1F3421501F01F030126FB
:104DF00006FA03F3012D02D19689334006E0022D15
:104E000002D1168A334001E0968A33400C12012603
:104E100006FA04F41688344013B10CB1012000E006
:104E2000002070BD10B50022002340F66A14A14294
:104E300000D100BF0A1201249440A3B2DC430480D5
:104E400010BD000000380140004400400048004010
:104E5000004C00400050004031490143314A11608C
:104E6000704770B5002100230F22C47804B32D4C85
:104E7000246804F4E064C4F5E064210AC1F1040389
:104E8000CA40447804FA03F18478144021430901AC
:104E9000254C0678A155047804F01F050124AC4088
:104EA00005786D11AD0005F1E025C5F8004109E078
:104EB000047804F01F050124AC401C4D06787611DF
:104EC00045F8264070BD1A4A0A400243154B1B1F85
:104ED0001A60704739B1134A121D12680243114B10
:104EE0001B1D1A6006E00F4A121D126882430D4B0B
:104EF0001B1D1A607047042808D14FF0E021096992
:104F000041F004014FF0E022116107E04FF0E02191
:104F1000096921F004014FF0E0221161704700009F
:104F20000000FA050CED00E000E400E080E100E0A4
:104F300080FFFF1F10B50446BE48844208D10121FE
:104F40008014FFF73BFD0021A014FFF737FD16E0AA
:104F5000B948844208D101210014FFF73CFD00212B
:104F60002014FFF738FD0AE0B448844207D101213C
:104F7000C013FFF730FD0021E013FFF72CFD10BD3B
:104F800010B50022028802F441520B884C8823435A
:104F90008C882343CC8823430C8923434C892343A7
:104FA0008C892343CC8923431A430280838B4FF29D
:104FB000FF74234083830B8A038210BD2DE9F04FD9
:104FC00085B005460C464FF0000902274FF0000857
:104FD0004FF0010B0026B246A88B4FF2400108406B
:104FE000A88302202884B5F81C90A068022801D16B
:104FF00000BF38E0A08810B94FF0010B01E04FF07E
:10500000020B8D48854200D100E000BF6846FFF7E3
:105010004EFCDDF800A0E088B0F5007F0AD14FEA31
:105020001A2000EB80004000A168B0FBF1F0401DA9
:1050300086B20BE04FEA4B10BAFBF0F000EB8000B9
:105040004000A168B0FBF1F0401D86B20A20B6FB1B
:10505000F0F606F00108A6EB0800C0F34F074FF684
:10506000FF7000EA0828022F01DBFF2F02DD022774
:105070004FF00008E08840EA080038432884A08800
:10508000A1890843618808432188084340F40060EF
:1050900040EA0909A5F81C9005B0BDE8F08F002191
:1050A000018041808180C180018141818181C181F4
:1050B0000721018270470021018041808180C180E9
:1050C0000221816000218181704721B1028842F074
:1050D0004002028004E002884FF6BF731A4002804B
:1050E000704721B1828B42F48062828304E0828B1C
:1050F0004FF6FF331A408283704730B500240023F7
:105100000C110125A540ABB21AB185881D438580DD
:1051100002E085889D43858030BD1AB183880B43AA
:10512000838002E083888B4383807047818170474E
:105130000146888970474FF6FF62914204D0028889
:1051400042F48072028004E002884FF6FF631A4046
:105150000280704721B1828842F00402828004E01C
:1051600082884FF6FB731A408280704702884FF2A4
:10517000FF731A40028002880A4302807047018848
:1051800041F480510180704721B1028842F40052FD
:10519000028004E002884DF6FF731A4002807047D7
:1051A00002460020012901D0108B00E0908A704750
:1051B0000146088A7047B1F5804F04D1028842F455
:1051C0008042028004E002884BF6FF731A4002809E
:1051D00070470246002013890B400BB1012000E00C
:1051E00000207047CA4302817047F0B50246002094
:1051F00000240023002501F00F070126BE40B4B2B1
:105200000B1101269E40B3B2968806EA0305168963
:10521000264016B10DB1012000E00020F0BD10B510
:10522000002201F00F040123A3409AB2D34303816B
:1052300010BD00000030014000380040003C00403C
:1052400010B50446FE48844208D10121C014FFF77E
:10525000B5FB0021E014FFF7B1FBC4E0B4F1804FCF
:1052600008D101210846FFF7B6FB00210120FFF716
:10527000B2FBB8E0F348844208D101210220FFF7D5
:10528000AAFB00210220FFF7A6FBACE0EE48844217
:1052900008D101210420FFF79EFB00210420FFF725
:1052A0009AFBA0E0E948844208D101210820FFF7D9
:1052B00092FB00210820FFF78EFB94E0E448844233
:1052C00008D101211020FFF786FB00211020FFF7F5
:1052D00082FB88E0DF48844208D101212020FFF7CB
:1052E0007AFB00212020FFF776FB7CE0DA4884423D
:1052F00008D101214014FFF761FB00216014FFF782
:105300005DFB70E0D548844209D10121C804FFF754
:1053100055FB00214FF40020FFF750FB63E0D0481D
:10532000844209D101210805FFF748FB00214FF411
:105330008010FFF743FB56E0CA48844209D101219F
:105340004805FFF73BFB00214FF40010FFF736FB49
:1053500049E0C548844208D101214020FFF73BFBCA
:1053600000214020FFF737FB3DE0C048844208D1D0
:1053700001218020FFF72FFB00218020FFF72BFB6E
:1053800031E0BB48844208D101218015FFF723FB9F
:105390000021A015FFF71FFB25E0B648844209D184
:1053A00001210804FFF70AFB00214FF48030FFF7CA
:1053B00005FB18E0B048844209D101214804FFF7F9
:1053C000FDFA00214FF40030FFF7F8FA0BE0AB488C
:1053D000844208D101218804FFF7F0FA00214FF43C
:1053E0008020FFF7EBFA10BD00220288944B984210
:1053F0000ED0994B98420BD0B0F1804F08D0914B12
:10540000984205D0904B984202D0904B984204D1DC
:105410004FF68F731A404B881A438D4B984207D032
:105420008C4B984204D04FF6FF431A40CB881A4366
:1054300002808B8883850B880385814B98420BD033
:10544000854B984208D08B4B984205D08A4B9842A6
:1054500002D08A4B984201D10B7A038601238382C2
:10546000704770B5002400220023058C4FF6FE76AD
:1054700035400584028C8388048B4FF68F752C4051
:10548000B51E2C400D882C43751E2A400D892A43D9
:105490004D882A436A4DA8420BD06F4DA84208D0D0
:1054A000744DA84205D0744DA84202D0734DA84255
:1054B00013D14FF6F7752A404D892A434FF6FB75F5
:1054C0002A408D882A434FF6FF652B404FF6FF5543
:1054D0002B408D892B43CD892B4383800483CD883A
:1054E0008586028470BD70B5002400220023058CDF
:1054F0004FF6EF7635400584028C8388048B48F69E
:10550000FF752C404FF6FF452C400D884FF6FF7677
:1055100006EA05252C434FF6DF752A400D8906EA79
:1055200005152A434D8806EA05152A43444DA8422D
:1055300002D0494DA8421DD14FF67F752A404D89B2
:105540004FF6FF7606EA05152A434FF6BF752A4047
:105550008D8806EA05152A434FF6FF352B404FF29A
:10556000FF752B408D8906EA85052B43CD8906EA18
:1055700085052B4383800483CD880587028470BD15
:1055800070B5002400220023058C4FF6FF663540DD
:105590000584028C8388848B4FF68F752C404FF6E0
:1055A000FC752C400D882C434FF6FF552A400D8981
:1055B0004FF6FF7606EA05252A434D8806EA0525BB
:1055C0002A431F4DA84202D0234DA8421DD14FF2BD
:1055D000FF752A404D894FF6FF7606EA05252A43D6
:1055E0004FF6FF352A408D8806EA05252A434EF6F8
:1055F000FF752B404DF6FF752B408D8906EA05158A
:105600002B43CD8906EA05152B4383808483CD88FF
:105610008587028470BD70B5002200230024058CAC
:105620004EF6FF7635400584038C8488828B48F6DD
:10563000FF752A404FF6FF452A400D8820E0000004
:10564000002C01400004004000080040000C004015
:10565000001000400014004000340140004C0140A4
:10566000005001400054014000180040001C004060
:10567000002000400040014000440140004801403B
:105680004FF6FF7606EA05252A434DF6FF752B40B7
:105690000D8906EA05352B434D8806EA05352B436F
:1056A000FA4DA84202D0FA4DA84208D14BF6FF7538
:1056B0002C408D894FF6FF7606EA85152C438480B1
:1056C0008283CD88A0F84050038470BD828B4FF256
:1056D000FF331A408283828B4FF6FF7303EA012364
:1056E0001A4382837047F0B50C461546002200210C
:1056F0000026078C4EF6FF7C07EA0C070784828B96
:10570000018C4FF6FF7707EA043640F6FF473A4030
:105710004FF6FF7707EA05273A434FF6FF7707EA88
:1057200003373A43D94FB8420ED0D94FB8420BD0C5
:10573000B0F1804F08D0D74FB84205D0D64FB8420D
:1057400002D0D64FB84206D14DF6FF77394046F425
:105750008057394305E047F6FF57394044F48057F6
:10576000394382830184F0BD828B4FF6F3731A4074
:105770008283828B0A4382837047F0B50C461546BC
:10578000002200210026078C4FF6FF6C07EA0C0769
:105790000784828B018C4FF6FF7707EA04264FF6C9
:1057A0000C773A404FF6FF7707EA03172F433A4347
:1057B000B64FB8420ED0B64FB8420BD0B0F1804FC2
:1057C00008D0B44FB84205D0B34FB84202D0B34F5F
:1057D000B84206D14FF6FF57394046F48077394337
:1057E00005E04FF2FF57394044F480773943828314
:1057F0000184F0BD028B4FF2FF331A400283028B0B
:105800004FF6FF7303EA01231A4302837047F0B592
:105810000C461546002200210026078C4FF6EF7C2F
:1058200007EA0C070784028B018C4FF6FF7707EA23
:10583000041640F6FF473A404FF6FF7707EA033772
:105840003A434FF6FF7707EA05273A438F4FB842AE
:105850000ED08F4FB8420BD0B0F1804F08D08D4F93
:10586000B84205D08C4FB84202D08C4FB84206D116
:105870004FF6DF77394046F01007394305E04FF621
:105880005F77394044F01007394302830184F0BD4B
:10589000028B4FF6F3731A400283028B0A43028392
:1058A0007047F0B50C46154600220021068C4FF6D5
:1058B000FE773E400684028B018C4FF60C76324018
:1058C0007E1C06EA03162E433243704EB0420ED0C1
:1058D0006F4EB0420BD0B0F1804F08D06D4EB04249
:1058E00005D06D4EB04202D06C4EB04206D14FF69C
:1058F000FD76314044F00106314305E04FF6F57680
:10590000314044F00106314302830184F0BD70B59B
:1059100005460C465D4885420ED05D4885420BD059
:10592000B5F1804F08D05B48854205D05A48854282
:1059300002D05A48854200D100E000BF208850B90B
:105940002389A28861882846FFF7ABFFE1882846B3
:10595000FFF79EFF25E0208804280AD12389A2882A
:1059600061882846FFF753FFE1882846FFF742FF8A
:1059700017E0208808280AD12389A2886188284650
:10598000FFF7FBFEE1882846FFF7EEFE09E02389DA
:10599000A28861882846FFF7A6FEE1882846FFF71F
:1059A00095FE70BD2DE9F04105460C460026012705
:1059B000608808B9022600E00026A088012801D1ED
:1059C000022700E001272088A0B92389A2886188E6
:1059D0002846FFF766FFE1882846FFF759FF23892D
:1059E0003A4631462846FFF712FFE1882846FFF77E
:1059F00001FF13E02389A28861882846FFF707FF8B
:105A0000E1882846FFF7F6FE23893A4631462846C4
:105A1000FFF747FFE1882846FFF73AFFBDE8F0812E
:105A20000A884B881A438B881A43CB881A430B8900
:105A30001A434B891A438B891A43A0F844207047B4
:105A40004FF6FF71818000210180C1804180017289
:105A500070470021018041808180C18001814181A6
:105A60008181C181704700210180418001218180B5
:105A70000021C18001817047002101804180818027
:105A8000C18001814181818170470000002C01406B
:105A9000003401400004004000080040000C0040B9
:105AA00021B1028842F00102028004E002884FF630
:105AB000FE731A400280704731B1B0F8442042F4BE
:105AC0000042A0F8442005E0B0F84420C2F30E02E2
:105AD000A0F8442070471AB183890B43838102E008
